{
  "abi": [
    {
      "inputs": [
        {
          "internalType": "string",
          "name": "_name",
          "type": "string"
        },
        {
          "internalType": "string",
          "name": "_symbol",
          "type": "string"
        },
        {
          "internalType": "contract Base64",
          "name": "_base64",
          "type": "address"
        }
      ],
      "stateMutability": "nonpayable",
      "type": "constructor"
    },
    {
      "inputs": [],
      "name": "MaxSupply",
      "type": "error"
    },
    {
      "inputs": [],
      "name": "NonExistentTokenURI",
      "type": "error"
    },
    {
      "inputs": [],
      "name": "WithdrawTransfer",
      "type": "error"
    },
    {
      "anonymous": false,
      "inputs": [
        {
          "indexed": true,
          "internalType": "address",
          "name": "owner",
          "type": "address"
        },
        {
          "indexed": true,
          "internalType": "address",
          "name": "spender",
          "type": "address"
        },
        {
          "indexed": true,
          "internalType": "uint256",
          "name": "id",
          "type": "uint256"
        }
      ],
      "name": "Approval",
      "type": "event"
    },
    {
      "anonymous": false,
      "inputs": [
        {
          "indexed": true,
          "internalType": "address",
          "name": "owner",
          "type": "address"
        },
        {
          "indexed": true,
          "internalType": "address",
          "name": "operator",
          "type": "address"
        },
        {
          "indexed": false,
          "internalType": "bool",
          "name": "approved",
          "type": "bool"
        }
      ],
      "name": "ApprovalForAll",
      "type": "event"
    },
    {
      "anonymous": false,
      "inputs": [
        {
          "indexed": true,
          "internalType": "address",
          "name": "previousOwner",
          "type": "address"
        },
        {
          "indexed": true,
          "internalType": "address",
          "name": "newOwner",
          "type": "address"
        }
      ],
      "name": "OwnershipTransferred",
      "type": "event"
    },
    {
      "anonymous": false,
      "inputs": [
        {
          "indexed": true,
          "internalType": "address",
          "name": "from",
          "type": "address"
        },
        {
          "indexed": true,
          "internalType": "address",
          "name": "to",
          "type": "address"
        },
        {
          "indexed": true,
          "internalType": "uint256",
          "name": "id",
          "type": "uint256"
        }
      ],
      "name": "Transfer",
      "type": "event"
    },
    {
      "inputs": [],
      "name": "TOTAL_SUPPLY",
      "outputs": [
        {
          "internalType": "uint256",
          "name": "",
          "type": "uint256"
        }
      ],
      "stateMutability": "view",
      "type": "function"
    },
    {
      "inputs": [
        {
          "internalType": "address",
          "name": "spender",
          "type": "address"
        },
        {
          "internalType": "uint256",
          "name": "id",
          "type": "uint256"
        }
      ],
      "name": "approve",
      "outputs": [],
      "stateMutability": "nonpayable",
      "type": "function"
    },
    {
      "inputs": [
        {
          "internalType": "uint256",
          "name": "",
          "type": "uint256"
        }
      ],
      "name": "attributes",
      "outputs": [
        {
          "internalType": "uint256",
          "name": "",
          "type": "uint256"
        }
      ],
      "stateMutability": "view",
      "type": "function"
    },
    {
      "inputs": [
        {
          "internalType": "address",
          "name": "",
          "type": "address"
        }
      ],
      "name": "balanceOf",
      "outputs": [
        {
          "internalType": "uint256",
          "name": "",
          "type": "uint256"
        }
      ],
      "stateMutability": "view",
      "type": "function"
    },
    {
      "inputs": [],
      "name": "baseURI",
      "outputs": [
        {
          "internalType": "string",
          "name": "",
          "type": "string"
        }
      ],
      "stateMutability": "view",
      "type": "function"
    },
    {
      "inputs": [],
      "name": "currentTokenId",
      "outputs": [
        {
          "internalType": "uint256",
          "name": "",
          "type": "uint256"
        }
      ],
      "stateMutability": "view",
      "type": "function"
    },
    {
      "inputs": [
        {
          "internalType": "uint256",
          "name": "",
          "type": "uint256"
        }
      ],
      "name": "getApproved",
      "outputs": [
        {
          "internalType": "address",
          "name": "",
          "type": "address"
        }
      ],
      "stateMutability": "view",
      "type": "function"
    },
    {
      "inputs": [
        {
          "internalType": "address",
          "name": "",
          "type": "address"
        },
        {
          "internalType": "address",
          "name": "",
          "type": "address"
        }
      ],
      "name": "isApprovedForAll",
      "outputs": [
        {
          "internalType": "bool",
          "name": "",
          "type": "bool"
        }
      ],
      "stateMutability": "view",
      "type": "function"
    },
    {
      "inputs": [
        {
          "internalType": "address",
          "name": "recipient",
          "type": "address"
        }
      ],
      "name": "mintTo",
      "outputs": [
        {
          "internalType": "uint256",
          "name": "",
          "type": "uint256"
        }
      ],
      "stateMutability": "payable",
      "type": "function"
    },
    {
      "inputs": [],
      "name": "name",
      "outputs": [
        {
          "internalType": "string",
          "name": "",
          "type": "string"
        }
      ],
      "stateMutability": "view",
      "type": "function"
    },
    {
      "inputs": [],
      "name": "owner",
      "outputs": [
        {
          "internalType": "address",
          "name": "",
          "type": "address"
        }
      ],
      "stateMutability": "view",
      "type": "function"
    },
    {
      "inputs": [
        {
          "internalType": "uint256",
          "name": "",
          "type": "uint256"
        }
      ],
      "name": "ownerOf",
      "outputs": [
        {
          "internalType": "address",
          "name": "",
          "type": "address"
        }
      ],
      "stateMutability": "view",
      "type": "function"
    },
    {
      "inputs": [],
      "name": "renounceOwnership",
      "outputs": [],
      "stateMutability": "nonpayable",
      "type": "function"
    },
    {
      "inputs": [
        {
          "internalType": "address",
          "name": "from",
          "type": "address"
        },
        {
          "internalType": "address",
          "name": "to",
          "type": "address"
        },
        {
          "internalType": "uint256",
          "name": "id",
          "type": "uint256"
        }
      ],
      "name": "safeTransferFrom",
      "outputs": [],
      "stateMutability": "nonpayable",
      "type": "function"
    },
    {
      "inputs": [
        {
          "internalType": "address",
          "name": "from",
          "type": "address"
        },
        {
          "internalType": "address",
          "name": "to",
          "type": "address"
        },
        {
          "internalType": "uint256",
          "name": "id",
          "type": "uint256"
        },
        {
          "internalType": "bytes",
          "name": "data",
          "type": "bytes"
        }
      ],
      "name": "safeTransferFrom",
      "outputs": [],
      "stateMutability": "nonpayable",
      "type": "function"
    },
    {
      "inputs": [
        {
          "internalType": "address",
          "name": "operator",
          "type": "address"
        },
        {
          "internalType": "bool",
          "name": "approved",
          "type": "bool"
        }
      ],
      "name": "setApprovalForAll",
      "outputs": [],
      "stateMutability": "nonpayable",
      "type": "function"
    },
    {
      "inputs": [
        {
          "internalType": "bytes4",
          "name": "interfaceId",
          "type": "bytes4"
        }
      ],
      "name": "supportsInterface",
      "outputs": [
        {
          "internalType": "bool",
          "name": "",
          "type": "bool"
        }
      ],
      "stateMutability": "view",
      "type": "function"
    },
    {
      "inputs": [],
      "name": "symbol",
      "outputs": [
        {
          "internalType": "string",
          "name": "",
          "type": "string"
        }
      ],
      "stateMutability": "view",
      "type": "function"
    },
    {
      "inputs": [
        {
          "internalType": "uint256",
          "name": "tokenId",
          "type": "uint256"
        }
      ],
      "name": "tokenURI",
      "outputs": [
        {
          "internalType": "string",
          "name": "",
          "type": "string"
        }
      ],
      "stateMutability": "view",
      "type": "function"
    },
    {
      "inputs": [
        {
          "internalType": "address",
          "name": "from",
          "type": "address"
        },
        {
          "internalType": "address",
          "name": "to",
          "type": "address"
        },
        {
          "internalType": "uint256",
          "name": "id",
          "type": "uint256"
        }
      ],
      "name": "transferFrom",
      "outputs": [],
      "stateMutability": "nonpayable",
      "type": "function"
    },
    {
      "inputs": [
        {
          "internalType": "address",
          "name": "newOwner",
          "type": "address"
        }
      ],
      "name": "transferOwnership",
      "outputs": [],
      "stateMutability": "nonpayable",
      "type": "function"
    },
    {
      "inputs": [
        {
          "internalType": "address",
          "name": "to",
          "type": "address"
        },
        {
          "internalType": "uint256",
          "name": "id",
          "type": "uint256"
        }
      ],
      "name": "transferTo",
      "outputs": [],
      "stateMutability": "nonpayable",
      "type": "function"
    },
    {
      "inputs": [
        {
          "internalType": "address payable",
          "name": "payee",
          "type": "address"
        }
      ],
      "name": "withdrawPayments",
      "outputs": [],
      "stateMutability": "nonpayable",
      "type": "function"
    }
  ],
  "bytecode": {
    "object": "0x60806040523480156200001157600080fd5b5060405162001c2338038062001c23833981016040819052620000349162000272565b8251839083906200004d906000906020850190620000ff565b50805162000063906001906020840190620000ff565b505050620000806200007a620000a960201b60201c565b620000ad565b600a80546001600160a01b0319166001600160a01b0392909216919091179055506200033c9050565b3390565b600680546001600160a01b038381166001600160a01b0319831681179093556040519116919082907f8be0079c531659141344cd1fd0a4f28419497f9722a3daafe3b4186f6b6457e090600090a35050565b8280546200010d90620002ff565b90600052602060002090601f0160209004810192826200013157600085556200017c565b82601f106200014c57805160ff19168380011785556200017c565b828001600101855582156200017c579182015b828111156200017c5782518255916020019190600101906200015f565b506200018a9291506200018e565b5090565b5b808211156200018a57600081556001016200018f565b634e487b7160e01b600052604160045260246000fd5b600082601f830112620001cd57600080fd5b81516001600160401b0380821115620001ea57620001ea620001a5565b604051601f8301601f19908116603f01168101908282118183101715620002155762000215620001a5565b816040528381526020925086838588010111156200023257600080fd5b600091505b8382101562000256578582018301518183018401529082019062000237565b83821115620002685760008385830101525b9695505050505050565b6000806000606084860312156200028857600080fd5b83516001600160401b0380821115620002a057600080fd5b620002ae87838801620001bb565b94506020860151915080821115620002c557600080fd5b50620002d486828701620001bb565b604086015190935090506001600160a01b0381168114620002f457600080fd5b809150509250925092565b600181811c908216806200031457607f821691505b602082108114156200033657634e487b7160e01b600052602260045260246000fd5b50919050565b6118d7806200034c6000396000f3fe60806040526004361061017f5760003560e01c806370a08231116100d6578063a22cb4651161007f578063d05dcc6a11610059578063d05dcc6a14610438578063e985e9c514610465578063f2fde38b146104a057600080fd5b8063a22cb465146103d8578063b88d4fde146103f8578063c87b56dd1461041857600080fd5b80638da5cb5b116100b05780638da5cb5b1461038f578063902d55a5146103ad57806395d89b41146103c357600080fd5b806370a082311461033a578063715018a614610367578063755edd171461037c57600080fd5b806323b872dd1161013857806342842e0e1161011257806342842e0e146102cf5780636352211e146102ef5780636c0360eb1461032557600080fd5b806323b872dd1461026f5780632ccb1b301461028f57806331b3eb94146102af57600080fd5b806306fdde031161016957806306fdde03146101dd578063081812fc146101ff578063095ea7b31461024d57600080fd5b80629a9b7b1461018457806301ffc9a7146101ad575b600080fd5b34801561019057600080fd5b5061019a60085481565b6040519081526020015b60405180910390f35b3480156101b957600080fd5b506101cd6101c836600461135f565b6104c0565b60405190151581526020016101a4565b3480156101e957600080fd5b506101f261055d565b6040516101a491906113db565b34801561020b57600080fd5b5061023561021a3660046113ee565b6004602052600090815260409020546001600160a01b031681565b6040516001600160a01b0390911681526020016101a4565b34801561025957600080fd5b5061026d61026836600461141c565b6105eb565b005b34801561027b57600080fd5b5061026d61028a366004611448565b6106ee565b34801561029b57600080fd5b5061026d6102aa36600461141c565b6108f0565b3480156102bb57600080fd5b5061026d6102ca366004611489565b6109b5565b3480156102db57600080fd5b5061026d6102ea366004611448565b610aa1565b3480156102fb57600080fd5b5061023561030a3660046113ee565b6003602052600090815260409020546001600160a01b031681565b34801561033157600080fd5b506101f2610b94565b34801561034657600080fd5b5061019a610355366004611489565b60026020526000908152604090205481565b34801561037357600080fd5b5061026d610ba1565b61019a61038a366004611489565b610c07565b34801561039b57600080fd5b506006546001600160a01b0316610235565b3480156103b957600080fd5b5061019a61271081565b3480156103cf57600080fd5b506101f2610c8d565b3480156103e457600080fd5b5061026d6103f33660046114a6565b610c9a565b34801561040457600080fd5b5061026d610413366004611553565b610d06565b34801561042457600080fd5b506101f26104333660046113ee565b610deb565b34801561044457600080fd5b5061019a6104533660046113ee565b60096020526000908152604090205481565b34801561047157600080fd5b506101cd610480366004611602565b600560209081526000928352604080842090915290825290205460ff1681565b3480156104ac57600080fd5b5061026d6104bb366004611489565b610fe2565b60007f01ffc9a7000000000000000000000000000000000000000000000000000000006001600160e01b03198316148061052357507f80ac58cd000000000000000000000000000000000000000000000000000000006001600160e01b03198316145b8061055757507f5b5e139f000000000000000000000000000000000000000000000000000000006001600160e01b03198316145b92915050565b6000805461056a90611630565b80601f016020809104026020016040519081016040528092919081815260200182805461059690611630565b80156105e35780601f106105b8576101008083540402835291602001916105e3565b820191906000526020600020905b8154815290600101906020018083116105c657829003601f168201915b505050505081565b6000818152600360205260409020546001600160a01b03163381148061063457506001600160a01b038116600090815260056020908152604080832033845290915290205460ff165b6106855760405162461bcd60e51b815260206004820152600e60248201527f4e4f545f415554484f52495a454400000000000000000000000000000000000060448201526064015b60405180910390fd5b600082815260046020526040808220805473ffffffffffffffffffffffffffffffffffffffff19166001600160a01b0387811691821790925591518593918516917f8c5be1e5ebec7d5bd14f71427d1e84f3dd0314c0f7b2291e5b200ac8c7c3b92591a4505050565b6000818152600360205260409020546001600160a01b038481169116146107575760405162461bcd60e51b815260206004820152600a60248201527f57524f4e475f46524f4d00000000000000000000000000000000000000000000604482015260640161067c565b6001600160a01b0382166107ad5760405162461bcd60e51b815260206004820152601160248201527f494e56414c49445f524543495049454e54000000000000000000000000000000604482015260640161067c565b336001600160a01b03841614806107e757506001600160a01b038316600090815260056020908152604080832033845290915290205460ff165b8061080857506000818152600460205260409020546001600160a01b031633145b6108545760405162461bcd60e51b815260206004820152600e60248201527f4e4f545f415554484f52495a4544000000000000000000000000000000000000604482015260640161067c565b6001600160a01b03808416600081815260026020908152604080832080546000190190559386168083528483208054600101905585835260038252848320805473ffffffffffffffffffffffffffffffffffffffff199081168317909155600490925284832080549092169091559251849392917fddf252ad1be2c89b69c2b068fc378daa952ba7f163c4a11628f55a4df523b3ef91a4505050565b6000818152600360205260409020546001600160a01b0316338114156109585760405162461bcd60e51b815260206004820152600d60248201527f4e4f545f5448455f4f574e455200000000000000000000000000000000000000604482015260640161067c565b3360008181526002602052604080822080546000190190556001600160a01b038616808352818320805460010190559051859391927fddf252ad1be2c89b69c2b068fc378daa952ba7f163c4a11628f55a4df523b3ef91a4505050565b6006546001600160a01b03163314610a0f5760405162461bcd60e51b815260206004820181905260248201527f4f776e61626c653a2063616c6c6572206973206e6f7420746865206f776e6572604482015260640161067c565b60405147906000906001600160a01b0384169083908381818185875af1925050503d8060008114610a5c576040519150601f19603f3d011682016040523d82523d6000602084013e610a61565b606091505b5050905080610a9c576040517fd23a9e8900000000000000000000000000000000000000000000000000000000815260040160405180910390fd5b505050565b610aac8383836106ee565b6001600160a01b0382163b1580610b555750604051630a85bd0160e11b8082523360048301526001600160a01b03858116602484015260448301849052608060648401526000608484015290919084169063150b7a029060a4016020604051808303816000875af1158015610b25573d6000803e3d6000fd5b505050506040513d601f19601f82011682018060405250810190610b49919061166b565b6001600160e01b031916145b610a9c5760405162461bcd60e51b815260206004820152601060248201526f155394d0519157d49150d2541251539560821b604482015260640161067c565b6007805461056a90611630565b6006546001600160a01b03163314610bfb5760405162461bcd60e51b815260206004820181905260248201527f4f776e61626c653a2063616c6c6572206973206e6f7420746865206f776e6572604482015260640161067c565b610c0560006110c4565b565b600080600860008154610c1990611688565b91829055509050612710811115610c5c576040517fb36c128400000000000000000000000000000000000000000000000000000000815260040160405180910390fd5b6000818152600960205260408120549080808080808080610c7d8c8b611123565b50979a9950505050505050505050565b6001805461056a90611630565b3360008181526005602090815260408083206001600160a01b03871680855290835292819020805460ff191686151590811790915590519081529192917f17307eab39ab6107e8899845ad3d59bd9653f200f220920489ca2b5937696c31910160405180910390a35050565b610d118484846106ee565b6001600160a01b0383163b1580610da65750604051630a85bd0160e11b808252906001600160a01b0385169063150b7a0290610d579033908990889088906004016116b1565b6020604051808303816000875af1158015610d76573d6000803e3d6000fd5b505050506040513d601f19601f82011682018060405250810190610d9a919061166b565b6001600160e01b031916145b610de55760405162461bcd60e51b815260206004820152601060248201526f155394d0519157d49150d2541251539560821b604482015260640161067c565b50505050565b6000818152600360205260409020546060906001600160a01b0316610e3c576040517fd872946b00000000000000000000000000000000000000000000000000000000815260040160405180910390fd5b6000828152600960209081526040808320548151848152808401808452600a547f12496a1b00000000000000000000000000000000000000000000000000000000909152919463ffffffff8087169587901c81169487901c811693606088901c821693608089901c83169360a08a901c84169360c08b901c169260e08b901c9291906001600160a01b03166312496a1b828282610edc87602481016113db565b600060405180830381865afa158015610ef9573d6000803e3d6000fd5b505050506040513d6000823e601f3d908101601f19168201604052610f2191908101906116ed565b604051602001610f32929190611780565b6040516020818303038152906040526040518263ffffffff1660e01b8152600401610f5d91906113db565b600060405180830381865afa158015610f7a573d6000803e3d6000fd5b505050506040513d6000823e601f3d908101601f19168201604052610fa291908101906116ed565b9050600060078054610fb390611630565b905011610fcf5760405180602001604052806000815250610fd1565b805b9d9c50505050505050505050505050565b6006546001600160a01b0316331461103c5760405162461bcd60e51b815260206004820181905260248201527f4f776e61626c653a2063616c6c6572206973206e6f7420746865206f776e6572604482015260640161067c565b6001600160a01b0381166110b85760405162461bcd60e51b815260206004820152602660248201527f4f776e61626c653a206e6577206f776e657220697320746865207a65726f206160448201527f6464726573730000000000000000000000000000000000000000000000000000606482015260840161067c565b6110c1816110c4565b50565b600680546001600160a01b0383811673ffffffffffffffffffffffffffffffffffffffff19831681179093556040519116919082907f8be0079c531659141344cd1fd0a4f28419497f9722a3daafe3b4186f6b6457e090600090a35050565b61112d8282611216565b6001600160a01b0382163b15806111d35750604051630a85bd0160e11b80825233600483015260006024830181905260448301849052608060648401526084830152906001600160a01b0384169063150b7a029060a4016020604051808303816000875af11580156111a3573d6000803e3d6000fd5b505050506040513d601f19601f820116820180604052508101906111c7919061166b565b6001600160e01b031916145b6112125760405162461bcd60e51b815260206004820152601060248201526f155394d0519157d49150d2541251539560821b604482015260640161067c565b5050565b6001600160a01b03821661126c5760405162461bcd60e51b815260206004820152601160248201527f494e56414c49445f524543495049454e54000000000000000000000000000000604482015260640161067c565b6000818152600360205260409020546001600160a01b0316156112d15760405162461bcd60e51b815260206004820152600e60248201527f414c52454144595f4d494e544544000000000000000000000000000000000000604482015260640161067c565b6001600160a01b0382166000818152600260209081526040808320805460010190558483526003909152808220805473ffffffffffffffffffffffffffffffffffffffff19168417905551839291907fddf252ad1be2c89b69c2b068fc378daa952ba7f163c4a11628f55a4df523b3ef908290a45050565b6001600160e01b0319811681146110c157600080fd5b60006020828403121561137157600080fd5b813561137c81611349565b9392505050565b60005b8381101561139e578181015183820152602001611386565b83811115610de55750506000910152565b600081518084526113c7816020860160208601611383565b601f01601f19169290920160200192915050565b60208152600061137c60208301846113af565b60006020828403121561140057600080fd5b5035919050565b6001600160a01b03811681146110c157600080fd5b6000806040838503121561142f57600080fd5b823561143a81611407565b946020939093013593505050565b60008060006060848603121561145d57600080fd5b833561146881611407565b9250602084013561147881611407565b929592945050506040919091013590565b60006020828403121561149b57600080fd5b813561137c81611407565b600080604083850312156114b957600080fd5b82356114c481611407565b9150602083013580151581146114d957600080fd5b809150509250929050565b634e487b7160e01b600052604160045260246000fd5b604051601f8201601f1916810167ffffffffffffffff81118282101715611523576115236114e4565b604052919050565b600067ffffffffffffffff821115611545576115456114e4565b50601f01601f191660200190565b6000806000806080858703121561156957600080fd5b843561157481611407565b9350602085013561158481611407565b925060408501359150606085013567ffffffffffffffff8111156115a757600080fd5b8501601f810187136115b857600080fd5b80356115cb6115c68261152b565b6114fa565b8181528860208385010111156115e057600080fd5b8160208401602083013760006020838301015280935050505092959194509250565b6000806040838503121561161557600080fd5b823561162081611407565b915060208301356114d981611407565b600181811c9082168061164457607f821691505b6020821081141561166557634e487b7160e01b600052602260045260246000fd5b50919050565b60006020828403121561167d57600080fd5b815161137c81611349565b60006000198214156116aa57634e487b7160e01b600052601160045260246000fd5b5060010190565b60006001600160a01b038087168352808616602084015250836040830152608060608301526116e360808301846113af565b9695505050505050565b6000602082840312156116ff57600080fd5b815167ffffffffffffffff81111561171657600080fd5b8201601f8101841361172757600080fd5b80516117356115c68261152b565b81815285602083850101111561174a57600080fd5b61175b826020830160208601611383565b95945050505050565b60008151611776818560208601611383565b9290920192915050565b7f7b226e616d65223a20220000000000000000000000000000000000000000000081526000600a6000855481600182811c9150808316806117c257607f831692505b60208084108214156117e257634e487b7160e01b86526022600452602486fd5b8180156117f6576001811461180b5761183c565b60ff1986168a890152848a018801965061183c565b60008c81526020902060005b868110156118325781548c82018b0152908501908301611817565b505087858b010196505b5050505050506116e36118a161189b837f222c20226465736372697074696f6e223a2022222c2022696d616765223a202281527f646174613a696d6167652f7376672b786d6c3b6261736536342c0000000000006020820152603a0190565b87611764565b7f227d00000000000000000000000000000000000000000000000000000000000081526002019056fea164736f6c634300080c000a",
    "linkReferences": {}
  }
}