{
  "abi": [
    {
      "anonymous": false,
      "inputs": [
        {
          "indexed": false,
          "internalType": "address",
          "name": "who",
          "type": "address"
        },
        {
          "indexed": false,
          "internalType": "bytes4",
          "name": "fsig",
          "type": "bytes4"
        },
        {
          "indexed": false,
          "internalType": "bytes32",
          "name": "keysHash",
          "type": "bytes32"
        },
        {
          "indexed": false,
          "internalType": "uint256",
          "name": "slot",
          "type": "uint256"
        }
      ],
      "name": "SlotFound",
      "type": "event"
    },
    {
      "anonymous": false,
      "inputs": [
        {
          "indexed": false,
          "internalType": "address",
          "name": "who",
          "type": "address"
        },
        {
          "indexed": false,
          "internalType": "uint256",
          "name": "slot",
          "type": "uint256"
        }
      ],
      "name": "WARNING_UninitedSlot",
      "type": "event"
    },
    {
      "inputs": [
        {
          "internalType": "bytes",
          "name": "b",
          "type": "bytes"
        },
        {
          "internalType": "uint256",
          "name": "offset",
          "type": "uint256"
        }
      ],
      "name": "bytesToBytes32",
      "outputs": [
        {
          "internalType": "bytes32",
          "name": "",
          "type": "bytes32"
        }
      ],
      "stateMutability": "pure",
      "type": "function"
    }
  ],
  "bytecode": {
    "object": "0x61024a61003a600b82828239805160001a60731461002d57634e487b7160e01b600052600060045260246000fd5b30600052607381538281f3fe73000000000000000000000000000000000000000030146080604052600436106100355760003560e01c8063535849391461003a575b600080fd5b61004d61004836600461010a565b61005f565b60405190815260200160405180910390f35b60008060006020855111610074578451610077565b60205b905060005b818110156100ea5761008f8160086101d5565b8661009a83886101f4565b815181106100aa576100aa61020c565b01602001517fff0000000000000000000000000000000000000000000000000000000000000016901c9290921791806100e281610222565b91505061007c565b5090949350505050565b634e487b7160e01b600052604160045260246000fd5b6000806040838503121561011d57600080fd5b823567ffffffffffffffff8082111561013557600080fd5b818501915085601f83011261014957600080fd5b81358181111561015b5761015b6100f4565b604051601f8201601f19908116603f01168101908382118183101715610183576101836100f4565b8160405282815288602084870101111561019c57600080fd5b826020860160208301376000602093820184015298969091013596505050505050565b634e487b7160e01b600052601160045260246000fd5b60008160001904831182151516156101ef576101ef6101bf565b500290565b60008219821115610207576102076101bf565b500190565b634e487b7160e01b600052603260045260246000fd5b6000600019821415610236576102366101bf565b506001019056fea164736f6c634300080c000a",
    "linkReferences": {}
  }
}