{
  "abi": [
    {
      "inputs": [
        {
          "internalType": "bytes",
          "name": "data",
          "type": "bytes"
        }
      ],
      "name": "encode",
      "outputs": [
        {
          "internalType": "string",
          "name": "",
          "type": "string"
        }
      ],
      "stateMutability": "pure",
      "type": "function"
    }
  ],
  "bytecode": {
    "object": "0x608060405234801561001057600080fd5b5061019c806100206000396000f3fe608060405234801561001057600080fd5b506004361061002b5760003560e01c806312496a1b14610030575b600080fd5b61004461003e366004610089565b50606090565b604051610051919061013a565b60405180910390f35b7f4e487b7100000000000000000000000000000000000000000000000000000000600052604160045260246000fd5b60006020828403121561009b57600080fd5b813567ffffffffffffffff808211156100b357600080fd5b818401915084601f8301126100c757600080fd5b8135818111156100d9576100d961005a565b604051601f8201601f19908116603f011681019083821181831017156101015761010161005a565b8160405282815287602084870101111561011a57600080fd5b826020860160208301376000928101602001929092525095945050505050565b600060208083528351808285015260005b818110156101675785810183015185820160400152820161014b565b81811115610179576000604083870101525b50601f01601f191692909201604001939250505056fea164736f6c634300080c000a",
    "linkReferences": {}
  }
}