{
  "abi": [
    {
      "inputs": [
        {
          "internalType": "string",
          "name": "_name",
          "type": "string"
        },
        {
          "internalType": "string",
          "name": "_symbol",
          "type": "string"
        }
      ],
      "stateMutability": "nonpayable",
      "type": "constructor"
    },
    {
      "inputs": [],
      "name": "MaxSupply",
      "type": "error"
    },
    {
      "inputs": [],
      "name": "NonExistentTokenURI",
      "type": "error"
    },
    {
      "inputs": [],
      "name": "WithdrawTransfer",
      "type": "error"
    },
    {
      "anonymous": false,
      "inputs": [
        {
          "indexed": true,
          "internalType": "address",
          "name": "owner",
          "type": "address"
        },
        {
          "indexed": true,
          "internalType": "address",
          "name": "spender",
          "type": "address"
        },
        {
          "indexed": true,
          "internalType": "uint256",
          "name": "id",
          "type": "uint256"
        }
      ],
      "name": "Approval",
      "type": "event"
    },
    {
      "anonymous": false,
      "inputs": [
        {
          "indexed": true,
          "internalType": "address",
          "name": "owner",
          "type": "address"
        },
        {
          "indexed": true,
          "internalType": "address",
          "name": "operator",
          "type": "address"
        },
        {
          "indexed": false,
          "internalType": "bool",
          "name": "approved",
          "type": "bool"
        }
      ],
      "name": "ApprovalForAll",
      "type": "event"
    },
    {
      "anonymous": false,
      "inputs": [
        {
          "indexed": true,
          "internalType": "address",
          "name": "previousOwner",
          "type": "address"
        },
        {
          "indexed": true,
          "internalType": "address",
          "name": "newOwner",
          "type": "address"
        }
      ],
      "name": "OwnershipTransferred",
      "type": "event"
    },
    {
      "anonymous": false,
      "inputs": [
        {
          "indexed": true,
          "internalType": "address",
          "name": "from",
          "type": "address"
        },
        {
          "indexed": true,
          "internalType": "address",
          "name": "to",
          "type": "address"
        },
        {
          "indexed": true,
          "internalType": "uint256",
          "name": "id",
          "type": "uint256"
        }
      ],
      "name": "Transfer",
      "type": "event"
    },
    {
      "inputs": [],
      "name": "MINT_PRICE",
      "outputs": [
        {
          "internalType": "uint256",
          "name": "",
          "type": "uint256"
        }
      ],
      "stateMutability": "view",
      "type": "function"
    },
    {
      "inputs": [],
      "name": "TOTAL_SUPPLY",
      "outputs": [
        {
          "internalType": "uint256",
          "name": "",
          "type": "uint256"
        }
      ],
      "stateMutability": "view",
      "type": "function"
    },
    {
      "inputs": [
        {
          "internalType": "address",
          "name": "spender",
          "type": "address"
        },
        {
          "internalType": "uint256",
          "name": "id",
          "type": "uint256"
        }
      ],
      "name": "approve",
      "outputs": [],
      "stateMutability": "nonpayable",
      "type": "function"
    },
    {
      "inputs": [
        {
          "internalType": "uint256",
          "name": "",
          "type": "uint256"
        }
      ],
      "name": "attributes",
      "outputs": [
        {
          "internalType": "uint256",
          "name": "",
          "type": "uint256"
        }
      ],
      "stateMutability": "view",
      "type": "function"
    },
    {
      "inputs": [
        {
          "internalType": "address",
          "name": "",
          "type": "address"
        }
      ],
      "name": "balanceOf",
      "outputs": [
        {
          "internalType": "uint256",
          "name": "",
          "type": "uint256"
        }
      ],
      "stateMutability": "view",
      "type": "function"
    },
    {
      "inputs": [],
      "name": "baseURI",
      "outputs": [
        {
          "internalType": "string",
          "name": "",
          "type": "string"
        }
      ],
      "stateMutability": "view",
      "type": "function"
    },
    {
      "inputs": [],
      "name": "currentTokenId",
      "outputs": [
        {
          "internalType": "uint256",
          "name": "",
          "type": "uint256"
        }
      ],
      "stateMutability": "view",
      "type": "function"
    },
    {
      "inputs": [
        {
          "internalType": "uint256",
          "name": "",
          "type": "uint256"
        }
      ],
      "name": "getApproved",
      "outputs": [
        {
          "internalType": "address",
          "name": "",
          "type": "address"
        }
      ],
      "stateMutability": "view",
      "type": "function"
    },
    {
      "inputs": [
        {
          "internalType": "address",
          "name": "",
          "type": "address"
        },
        {
          "internalType": "address",
          "name": "",
          "type": "address"
        }
      ],
      "name": "isApprovedForAll",
      "outputs": [
        {
          "internalType": "bool",
          "name": "",
          "type": "bool"
        }
      ],
      "stateMutability": "view",
      "type": "function"
    },
    {
      "inputs": [
        {
          "internalType": "address",
          "name": "recipient",
          "type": "address"
        }
      ],
      "name": "mintTo",
      "outputs": [
        {
          "internalType": "uint256",
          "name": "",
          "type": "uint256"
        }
      ],
      "stateMutability": "payable",
      "type": "function"
    },
    {
      "inputs": [],
      "name": "name",
      "outputs": [
        {
          "internalType": "string",
          "name": "",
          "type": "string"
        }
      ],
      "stateMutability": "view",
      "type": "function"
    },
    {
      "inputs": [],
      "name": "owner",
      "outputs": [
        {
          "internalType": "address",
          "name": "",
          "type": "address"
        }
      ],
      "stateMutability": "view",
      "type": "function"
    },
    {
      "inputs": [
        {
          "internalType": "uint256",
          "name": "",
          "type": "uint256"
        }
      ],
      "name": "ownerOf",
      "outputs": [
        {
          "internalType": "address",
          "name": "",
          "type": "address"
        }
      ],
      "stateMutability": "view",
      "type": "function"
    },
    {
      "inputs": [],
      "name": "renounceOwnership",
      "outputs": [],
      "stateMutability": "nonpayable",
      "type": "function"
    },
    {
      "inputs": [
        {
          "internalType": "address",
          "name": "from",
          "type": "address"
        },
        {
          "internalType": "address",
          "name": "to",
          "type": "address"
        },
        {
          "internalType": "uint256",
          "name": "id",
          "type": "uint256"
        }
      ],
      "name": "safeTransferFrom",
      "outputs": [],
      "stateMutability": "nonpayable",
      "type": "function"
    },
    {
      "inputs": [
        {
          "internalType": "address",
          "name": "from",
          "type": "address"
        },
        {
          "internalType": "address",
          "name": "to",
          "type": "address"
        },
        {
          "internalType": "uint256",
          "name": "id",
          "type": "uint256"
        },
        {
          "internalType": "bytes",
          "name": "data",
          "type": "bytes"
        }
      ],
      "name": "safeTransferFrom",
      "outputs": [],
      "stateMutability": "nonpayable",
      "type": "function"
    },
    {
      "inputs": [
        {
          "internalType": "address",
          "name": "operator",
          "type": "address"
        },
        {
          "internalType": "bool",
          "name": "approved",
          "type": "bool"
        }
      ],
      "name": "setApprovalForAll",
      "outputs": [],
      "stateMutability": "nonpayable",
      "type": "function"
    },
    {
      "inputs": [
        {
          "internalType": "bytes4",
          "name": "interfaceId",
          "type": "bytes4"
        }
      ],
      "name": "supportsInterface",
      "outputs": [
        {
          "internalType": "bool",
          "name": "",
          "type": "bool"
        }
      ],
      "stateMutability": "view",
      "type": "function"
    },
    {
      "inputs": [],
      "name": "symbol",
      "outputs": [
        {
          "internalType": "string",
          "name": "",
          "type": "string"
        }
      ],
      "stateMutability": "view",
      "type": "function"
    },
    {
      "inputs": [
        {
          "internalType": "uint256",
          "name": "tokenId",
          "type": "uint256"
        }
      ],
      "name": "tokenURI",
      "outputs": [
        {
          "internalType": "string",
          "name": "",
          "type": "string"
        }
      ],
      "stateMutability": "view",
      "type": "function"
    },
    {
      "inputs": [
        {
          "internalType": "address",
          "name": "from",
          "type": "address"
        },
        {
          "internalType": "address",
          "name": "to",
          "type": "address"
        },
        {
          "internalType": "uint256",
          "name": "id",
          "type": "uint256"
        }
      ],
      "name": "transferFrom",
      "outputs": [],
      "stateMutability": "nonpayable",
      "type": "function"
    },
    {
      "inputs": [
        {
          "internalType": "address",
          "name": "newOwner",
          "type": "address"
        }
      ],
      "name": "transferOwnership",
      "outputs": [],
      "stateMutability": "nonpayable",
      "type": "function"
    },
    {
      "inputs": [
        {
          "internalType": "address payable",
          "name": "payee",
          "type": "address"
        }
      ],
      "name": "withdrawPayments",
      "outputs": [],
      "stateMutability": "nonpayable",
      "type": "function"
    }
  ],
  "bytecode": {
    "object": "0x60806040523480156200001157600080fd5b5060405162001b5538038062001b55833981016040819052620000349162000251565b8151829082906200004d906000906020850190620000de565b50805162000063906001906020840190620000de565b505050620000806200007a6200008860201b60201c565b6200008c565b5050620002f8565b3390565b600680546001600160a01b038381166001600160a01b0319831681179093556040519116919082907f8be0079c531659141344cd1fd0a4f28419497f9722a3daafe3b4186f6b6457e090600090a35050565b828054620000ec90620002bb565b90600052602060002090601f0160209004810192826200011057600085556200015b565b82601f106200012b57805160ff19168380011785556200015b565b828001600101855582156200015b579182015b828111156200015b5782518255916020019190600101906200013e565b50620001699291506200016d565b5090565b5b808211156200016957600081556001016200016e565b634e487b7160e01b600052604160045260246000fd5b600082601f830112620001ac57600080fd5b81516001600160401b0380821115620001c957620001c962000184565b604051601f8301601f19908116603f01168101908282118183101715620001f457620001f462000184565b816040528381526020925086838588010111156200021157600080fd5b600091505b8382101562000235578582018301518183018401529082019062000216565b83821115620002475760008385830101525b9695505050505050565b600080604083850312156200026557600080fd5b82516001600160401b03808211156200027d57600080fd5b6200028b868387016200019a565b93506020850151915080821115620002a257600080fd5b50620002b1858286016200019a565b9150509250929050565b600181811c90821680620002d057607f821691505b60208210811415620002f257634e487b7160e01b600052602260045260246000fd5b50919050565b61184d80620003086000396000f3fe60806040526004361061017f5760003560e01c8063715018a6116100d6578063b88d4fde1161007f578063d05dcc6a11610059578063d05dcc6a14610434578063e985e9c514610461578063f2fde38b1461049c57600080fd5b8063b88d4fde146103d8578063c002d23d146103f8578063c87b56dd1461041457600080fd5b8063902d55a5116100b0578063902d55a51461038d57806395d89b41146103a3578063a22cb465146103b857600080fd5b8063715018a614610347578063755edd171461035c5780638da5cb5b1461036f57600080fd5b806323b872dd116101385780636352211e116101125780636352211e146102cf5780636c0360eb1461030557806370a082311461031a57600080fd5b806323b872dd1461026f57806331b3eb941461028f57806342842e0e146102af57600080fd5b806306fdde031161016957806306fdde03146101dd578063081812fc146101ff578063095ea7b31461024d57600080fd5b80629a9b7b1461018457806301ffc9a7146101ad575b600080fd5b34801561019057600080fd5b5061019a60085481565b6040519081526020015b60405180910390f35b3480156101b957600080fd5b506101cd6101c836600461136a565b6104bc565b60405190151581526020016101a4565b3480156101e957600080fd5b506101f2610559565b6040516101a491906113df565b34801561020b57600080fd5b5061023561021a3660046113f2565b6004602052600090815260409020546001600160a01b031681565b6040516001600160a01b0390911681526020016101a4565b34801561025957600080fd5b5061026d610268366004611420565b6105e7565b005b34801561027b57600080fd5b5061026d61028a36600461144c565b6106ea565b34801561029b57600080fd5b5061026d6102aa36600461148d565b6108ec565b3480156102bb57600080fd5b5061026d6102ca36600461144c565b6109d8565b3480156102db57600080fd5b506102356102ea3660046113f2565b6003602052600090815260409020546001600160a01b031681565b34801561031157600080fd5b506101f2610acb565b34801561032657600080fd5b5061019a61033536600461148d565b60026020526000908152604090205481565b34801561035357600080fd5b5061026d610ad8565b61019a61036a36600461148d565b610b3e565b34801561037b57600080fd5b506006546001600160a01b0316610235565b34801561039957600080fd5b5061019a61271081565b3480156103af57600080fd5b506101f2610ba5565b3480156103c457600080fd5b5061026d6103d33660046114aa565b610bb2565b3480156103e457600080fd5b5061026d6103f33660046114fe565b610c1e565b34801561040457600080fd5b5061019a67011c37937e08000081565b34801561042057600080fd5b506101f261042f3660046113f2565b610d03565b34801561044057600080fd5b5061019a61044f3660046113f2565b60096020526000908152604090205481565b34801561046d57600080fd5b506101cd61047c3660046115de565b600560209081526000928352604080842090915290825290205460ff1681565b3480156104a857600080fd5b5061026d6104b736600461148d565b610eb3565b60007f01ffc9a7000000000000000000000000000000000000000000000000000000006001600160e01b03198316148061051f57507f80ac58cd000000000000000000000000000000000000000000000000000000006001600160e01b03198316145b8061055357507f5b5e139f000000000000000000000000000000000000000000000000000000006001600160e01b03198316145b92915050565b600080546105669061160c565b80601f01602080910402602001604051908101604052809291908181526020018280546105929061160c565b80156105df5780601f106105b4576101008083540402835291602001916105df565b820191906000526020600020905b8154815290600101906020018083116105c257829003601f168201915b505050505081565b6000818152600360205260409020546001600160a01b03163381148061063057506001600160a01b038116600090815260056020908152604080832033845290915290205460ff165b6106815760405162461bcd60e51b815260206004820152600e60248201527f4e4f545f415554484f52495a454400000000000000000000000000000000000060448201526064015b60405180910390fd5b600082815260046020526040808220805473ffffffffffffffffffffffffffffffffffffffff19166001600160a01b0387811691821790925591518593918516917f8c5be1e5ebec7d5bd14f71427d1e84f3dd0314c0f7b2291e5b200ac8c7c3b92591a4505050565b6000818152600360205260409020546001600160a01b038481169116146107535760405162461bcd60e51b815260206004820152600a60248201527f57524f4e475f46524f4d000000000000000000000000000000000000000000006044820152606401610678565b6001600160a01b0382166107a95760405162461bcd60e51b815260206004820152601160248201527f494e56414c49445f524543495049454e540000000000000000000000000000006044820152606401610678565b336001600160a01b03841614806107e357506001600160a01b038316600090815260056020908152604080832033845290915290205460ff165b8061080457506000818152600460205260409020546001600160a01b031633145b6108505760405162461bcd60e51b815260206004820152600e60248201527f4e4f545f415554484f52495a45440000000000000000000000000000000000006044820152606401610678565b6001600160a01b03808416600081815260026020908152604080832080546000190190559386168083528483208054600101905585835260038252848320805473ffffffffffffffffffffffffffffffffffffffff199081168317909155600490925284832080549092169091559251849392917fddf252ad1be2c89b69c2b068fc378daa952ba7f163c4a11628f55a4df523b3ef91a4505050565b6006546001600160a01b031633146109465760405162461bcd60e51b815260206004820181905260248201527f4f776e61626c653a2063616c6c6572206973206e6f7420746865206f776e65726044820152606401610678565b60405147906000906001600160a01b0384169083908381818185875af1925050503d8060008114610993576040519150601f19603f3d011682016040523d82523d6000602084013e610998565b606091505b50509050806109d3576040517fd23a9e8900000000000000000000000000000000000000000000000000000000815260040160405180910390fd5b505050565b6109e38383836106ea565b6001600160a01b0382163b1580610a8c5750604051630a85bd0160e11b8082523360048301526001600160a01b03858116602484015260448301849052608060648401526000608484015290919084169063150b7a029060a4016020604051808303816000875af1158015610a5c573d6000803e3d6000fd5b505050506040513d601f19601f82011682018060405250810190610a809190611647565b6001600160e01b031916145b6109d35760405162461bcd60e51b815260206004820152601060248201526f155394d0519157d49150d2541251539560821b6044820152606401610678565b600780546105669061160c565b6006546001600160a01b03163314610b325760405162461bcd60e51b815260206004820181905260248201527f4f776e61626c653a2063616c6c6572206973206e6f7420746865206f776e65726044820152606401610678565b610b3c6000610f95565b565b60088054600091829081610b518461167a565b91829055509050612710811115610b94576040517fb36c128400000000000000000000000000000000000000000000000000000000815260040160405180910390fd5b610b9e8482610ff4565b9392505050565b600180546105669061160c565b3360008181526005602090815260408083206001600160a01b03871680855290835292819020805460ff191686151590811790915590519081529192917f17307eab39ab6107e8899845ad3d59bd9653f200f220920489ca2b5937696c31910160405180910390a35050565b610c298484846106ea565b6001600160a01b0383163b1580610cbe5750604051630a85bd0160e11b808252906001600160a01b0385169063150b7a0290610c6f903390899088908890600401611695565b6020604051808303816000875af1158015610c8e573d6000803e3d6000fd5b505050506040513d601f19601f82011682018060405250810190610cb29190611647565b6001600160e01b031916145b610cfd5760405162461bcd60e51b815260206004820152601060248201526f155394d0519157d49150d2541251539560821b6044820152606401610678565b50505050565b6000818152600360205260409020546060906001600160a01b0316610d54576040517fd872946b00000000000000000000000000000000000000000000000000000000815260040160405180910390fd5b600780547fc0000000000000000000000000000000000000000000000000000000ffffffff917fc00000000000000000000000000000000000000000000000ffffffff00000000917fc000000000000000000000000000000000000000ffffffff0000000000000000917fc0000000000000000000000000000000ffffffff000000000000000000000000917fc00000000000000000000000ffffffff00000000000000000000000000000000917fc000000000000000ffffffff0000000000000000000000000000000000000000917fc0000000ffffffff000000000000000000000000000000000000000000000000916001600160e01b03199160009190610e5d9061160c565b905011610e795760405180602001604052806000815250610ea5565b6007610e848b6110e7565b604051602001610e959291906116ed565b6040516020818303038152906040525b9a9950505050505050505050565b6006546001600160a01b03163314610f0d5760405162461bcd60e51b815260206004820181905260248201527f4f776e61626c653a2063616c6c6572206973206e6f7420746865206f776e65726044820152606401610678565b6001600160a01b038116610f895760405162461bcd60e51b815260206004820152602660248201527f4f776e61626c653a206e6577206f776e657220697320746865207a65726f206160448201527f64647265737300000000000000000000000000000000000000000000000000006064820152608401610678565b610f9281610f95565b50565b600680546001600160a01b0383811673ffffffffffffffffffffffffffffffffffffffff19831681179093556040519116919082907f8be0079c531659141344cd1fd0a4f28419497f9722a3daafe3b4186f6b6457e090600090a35050565b610ffe8282611221565b6001600160a01b0382163b15806110a45750604051630a85bd0160e11b80825233600483015260006024830181905260448301849052608060648401526084830152906001600160a01b0384169063150b7a029060a4016020604051808303816000875af1158015611074573d6000803e3d6000fd5b505050506040513d601f19601f820116820180604052508101906110989190611647565b6001600160e01b031916145b6110e35760405162461bcd60e51b815260206004820152601060248201526f155394d0519157d49150d2541251539560821b6044820152606401610678565b5050565b60608161112757505060408051808201909152600181527f3000000000000000000000000000000000000000000000000000000000000000602082015290565b8160005b8115611151578061113b8161167a565b915061114a9050600a836117aa565b915061112b565b60008167ffffffffffffffff81111561116c5761116c6114e8565b6040519080825280601f01601f191660200182016040528015611196576020820181803683370190505b5090505b8415611219576111ab6001836117be565b91506111b8600a866117d5565b6111c39060306117e9565b60f81b8183815181106111d8576111d8611801565b60200101907effffffffffffffffffffffffffffffffffffffffffffffffffffffffffffff1916908160001a905350611212600a866117aa565b945061119a565b949350505050565b6001600160a01b0382166112775760405162461bcd60e51b815260206004820152601160248201527f494e56414c49445f524543495049454e540000000000000000000000000000006044820152606401610678565b6000818152600360205260409020546001600160a01b0316156112dc5760405162461bcd60e51b815260206004820152600e60248201527f414c52454144595f4d494e5445440000000000000000000000000000000000006044820152606401610678565b6001600160a01b0382166000818152600260209081526040808320805460010190558483526003909152808220805473ffffffffffffffffffffffffffffffffffffffff19168417905551839291907fddf252ad1be2c89b69c2b068fc378daa952ba7f163c4a11628f55a4df523b3ef908290a45050565b6001600160e01b031981168114610f9257600080fd5b60006020828403121561137c57600080fd5b8135610b9e81611354565b60005b838110156113a257818101518382015260200161138a565b83811115610cfd5750506000910152565b600081518084526113cb816020860160208601611387565b601f01601f19169290920160200192915050565b602081526000610b9e60208301846113b3565b60006020828403121561140457600080fd5b5035919050565b6001600160a01b0381168114610f9257600080fd5b6000806040838503121561143357600080fd5b823561143e8161140b565b946020939093013593505050565b60008060006060848603121561146157600080fd5b833561146c8161140b565b9250602084013561147c8161140b565b929592945050506040919091013590565b60006020828403121561149f57600080fd5b8135610b9e8161140b565b600080604083850312156114bd57600080fd5b82356114c88161140b565b9150602083013580151581146114dd57600080fd5b809150509250929050565b634e487b7160e01b600052604160045260246000fd5b6000806000806080858703121561151457600080fd5b843561151f8161140b565b9350602085013561152f8161140b565b925060408501359150606085013567ffffffffffffffff8082111561155357600080fd5b818701915087601f83011261156757600080fd5b813581811115611579576115796114e8565b604051601f8201601f19908116603f011681019083821181831017156115a1576115a16114e8565b816040528281528a60208487010111156115ba57600080fd5b82602086016020830137600060208483010152809550505050505092959194509250565b600080604083850312156115f157600080fd5b82356115fc8161140b565b915060208301356114dd8161140b565b600181811c9082168061162057607f821691505b6020821081141561164157634e487b7160e01b600052602260045260246000fd5b50919050565b60006020828403121561165957600080fd5b8151610b9e81611354565b634e487b7160e01b600052601160045260246000fd5b600060001982141561168e5761168e611664565b5060010190565b60006001600160a01b038087168352808616602084015250836040830152608060608301526116c760808301846113b3565b9695505050505050565b600081516116e3818560208601611387565b9290920192915050565b600080845481600182811c91508083168061170957607f831692505b602080841082141561172957634e487b7160e01b86526022600452602486fd5b81801561173d576001811461174e5761177b565b60ff1986168952848901965061177b565b60008b81526020902060005b868110156117735781548b82015290850190830161175a565b505084890196505b50505050505061178b81856116d1565b95945050505050565b634e487b7160e01b600052601260045260246000fd5b6000826117b9576117b9611794565b500490565b6000828210156117d0576117d0611664565b500390565b6000826117e4576117e4611794565b500690565b600082198211156117fc576117fc611664565b500190565b634e487b7160e01b600052603260045260246000fdfea26469706673582212205d6deb6bf1499b7894e9294451d157ae2ec5b67ed1e50a320606b2541398c50764736f6c634300080c0033",
    "linkReferences": {}
  }
}