{
  "abi": [
    {
      "inputs": [
        {
          "internalType": "string",
          "name": "_name",
          "type": "string"
        },
        {
          "internalType": "string",
          "name": "_symbol",
          "type": "string"
        },
        {
          "internalType": "address",
          "name": "_base64Addr",
          "type": "address"
        }
      ],
      "stateMutability": "nonpayable",
      "type": "constructor"
    },
    {
      "inputs": [],
      "name": "MaxSupply",
      "type": "error"
    },
    {
      "inputs": [],
      "name": "NonExistentTokenURI",
      "type": "error"
    },
    {
      "inputs": [],
      "name": "WithdrawTransfer",
      "type": "error"
    },
    {
      "anonymous": false,
      "inputs": [
        {
          "indexed": true,
          "internalType": "address",
          "name": "owner",
          "type": "address"
        },
        {
          "indexed": true,
          "internalType": "address",
          "name": "spender",
          "type": "address"
        },
        {
          "indexed": true,
          "internalType": "uint256",
          "name": "id",
          "type": "uint256"
        }
      ],
      "name": "Approval",
      "type": "event"
    },
    {
      "anonymous": false,
      "inputs": [
        {
          "indexed": true,
          "internalType": "address",
          "name": "owner",
          "type": "address"
        },
        {
          "indexed": true,
          "internalType": "address",
          "name": "operator",
          "type": "address"
        },
        {
          "indexed": false,
          "internalType": "bool",
          "name": "approved",
          "type": "bool"
        }
      ],
      "name": "ApprovalForAll",
      "type": "event"
    },
    {
      "anonymous": false,
      "inputs": [
        {
          "indexed": true,
          "internalType": "address",
          "name": "previousOwner",
          "type": "address"
        },
        {
          "indexed": true,
          "internalType": "address",
          "name": "newOwner",
          "type": "address"
        }
      ],
      "name": "OwnershipTransferred",
      "type": "event"
    },
    {
      "anonymous": false,
      "inputs": [
        {
          "indexed": true,
          "internalType": "address",
          "name": "from",
          "type": "address"
        },
        {
          "indexed": true,
          "internalType": "address",
          "name": "to",
          "type": "address"
        },
        {
          "indexed": true,
          "internalType": "uint256",
          "name": "id",
          "type": "uint256"
        }
      ],
      "name": "Transfer",
      "type": "event"
    },
    {
      "inputs": [],
      "name": "MINT_PRICE",
      "outputs": [
        {
          "internalType": "uint256",
          "name": "",
          "type": "uint256"
        }
      ],
      "stateMutability": "view",
      "type": "function"
    },
    {
      "inputs": [],
      "name": "TOTAL_SUPPLY",
      "outputs": [
        {
          "internalType": "uint256",
          "name": "",
          "type": "uint256"
        }
      ],
      "stateMutability": "view",
      "type": "function"
    },
    {
      "inputs": [
        {
          "internalType": "address",
          "name": "spender",
          "type": "address"
        },
        {
          "internalType": "uint256",
          "name": "id",
          "type": "uint256"
        }
      ],
      "name": "approve",
      "outputs": [],
      "stateMutability": "nonpayable",
      "type": "function"
    },
    {
      "inputs": [
        {
          "internalType": "uint256",
          "name": "",
          "type": "uint256"
        }
      ],
      "name": "attributes",
      "outputs": [
        {
          "internalType": "uint256",
          "name": "",
          "type": "uint256"
        }
      ],
      "stateMutability": "view",
      "type": "function"
    },
    {
      "inputs": [
        {
          "internalType": "address",
          "name": "",
          "type": "address"
        }
      ],
      "name": "balanceOf",
      "outputs": [
        {
          "internalType": "uint256",
          "name": "",
          "type": "uint256"
        }
      ],
      "stateMutability": "view",
      "type": "function"
    },
    {
      "inputs": [],
      "name": "base64Addr",
      "outputs": [
        {
          "internalType": "address",
          "name": "",
          "type": "address"
        }
      ],
      "stateMutability": "view",
      "type": "function"
    },
    {
      "inputs": [],
      "name": "baseURI",
      "outputs": [
        {
          "internalType": "string",
          "name": "",
          "type": "string"
        }
      ],
      "stateMutability": "view",
      "type": "function"
    },
    {
      "inputs": [],
      "name": "currentTokenId",
      "outputs": [
        {
          "internalType": "uint256",
          "name": "",
          "type": "uint256"
        }
      ],
      "stateMutability": "view",
      "type": "function"
    },
    {
      "inputs": [
        {
          "internalType": "uint256",
          "name": "",
          "type": "uint256"
        }
      ],
      "name": "getApproved",
      "outputs": [
        {
          "internalType": "address",
          "name": "",
          "type": "address"
        }
      ],
      "stateMutability": "view",
      "type": "function"
    },
    {
      "inputs": [
        {
          "internalType": "address",
          "name": "",
          "type": "address"
        },
        {
          "internalType": "address",
          "name": "",
          "type": "address"
        }
      ],
      "name": "isApprovedForAll",
      "outputs": [
        {
          "internalType": "bool",
          "name": "",
          "type": "bool"
        }
      ],
      "stateMutability": "view",
      "type": "function"
    },
    {
      "inputs": [
        {
          "internalType": "address",
          "name": "recipient",
          "type": "address"
        }
      ],
      "name": "mintTo",
      "outputs": [
        {
          "internalType": "uint256",
          "name": "",
          "type": "uint256"
        }
      ],
      "stateMutability": "payable",
      "type": "function"
    },
    {
      "inputs": [],
      "name": "name",
      "outputs": [
        {
          "internalType": "string",
          "name": "",
          "type": "string"
        }
      ],
      "stateMutability": "view",
      "type": "function"
    },
    {
      "inputs": [],
      "name": "owner",
      "outputs": [
        {
          "internalType": "address",
          "name": "",
          "type": "address"
        }
      ],
      "stateMutability": "view",
      "type": "function"
    },
    {
      "inputs": [
        {
          "internalType": "uint256",
          "name": "",
          "type": "uint256"
        }
      ],
      "name": "ownerOf",
      "outputs": [
        {
          "internalType": "address",
          "name": "",
          "type": "address"
        }
      ],
      "stateMutability": "view",
      "type": "function"
    },
    {
      "inputs": [],
      "name": "renounceOwnership",
      "outputs": [],
      "stateMutability": "nonpayable",
      "type": "function"
    },
    {
      "inputs": [
        {
          "internalType": "address",
          "name": "from",
          "type": "address"
        },
        {
          "internalType": "address",
          "name": "to",
          "type": "address"
        },
        {
          "internalType": "uint256",
          "name": "id",
          "type": "uint256"
        }
      ],
      "name": "safeTransferFrom",
      "outputs": [],
      "stateMutability": "nonpayable",
      "type": "function"
    },
    {
      "inputs": [
        {
          "internalType": "address",
          "name": "from",
          "type": "address"
        },
        {
          "internalType": "address",
          "name": "to",
          "type": "address"
        },
        {
          "internalType": "uint256",
          "name": "id",
          "type": "uint256"
        },
        {
          "internalType": "bytes",
          "name": "data",
          "type": "bytes"
        }
      ],
      "name": "safeTransferFrom",
      "outputs": [],
      "stateMutability": "nonpayable",
      "type": "function"
    },
    {
      "inputs": [
        {
          "internalType": "address",
          "name": "operator",
          "type": "address"
        },
        {
          "internalType": "bool",
          "name": "approved",
          "type": "bool"
        }
      ],
      "name": "setApprovalForAll",
      "outputs": [],
      "stateMutability": "nonpayable",
      "type": "function"
    },
    {
      "inputs": [
        {
          "internalType": "bytes4",
          "name": "interfaceId",
          "type": "bytes4"
        }
      ],
      "name": "supportsInterface",
      "outputs": [
        {
          "internalType": "bool",
          "name": "",
          "type": "bool"
        }
      ],
      "stateMutability": "view",
      "type": "function"
    },
    {
      "inputs": [],
      "name": "symbol",
      "outputs": [
        {
          "internalType": "string",
          "name": "",
          "type": "string"
        }
      ],
      "stateMutability": "view",
      "type": "function"
    },
    {
      "inputs": [
        {
          "internalType": "uint256",
          "name": "tokenId",
          "type": "uint256"
        }
      ],
      "name": "tokenURI",
      "outputs": [
        {
          "internalType": "string",
          "name": "",
          "type": "string"
        }
      ],
      "stateMutability": "view",
      "type": "function"
    },
    {
      "inputs": [
        {
          "internalType": "address",
          "name": "from",
          "type": "address"
        },
        {
          "internalType": "address",
          "name": "to",
          "type": "address"
        },
        {
          "internalType": "uint256",
          "name": "id",
          "type": "uint256"
        }
      ],
      "name": "transferFrom",
      "outputs": [],
      "stateMutability": "nonpayable",
      "type": "function"
    },
    {
      "inputs": [
        {
          "internalType": "address",
          "name": "newOwner",
          "type": "address"
        }
      ],
      "name": "transferOwnership",
      "outputs": [],
      "stateMutability": "nonpayable",
      "type": "function"
    },
    {
      "inputs": [
        {
          "internalType": "address payable",
          "name": "payee",
          "type": "address"
        }
      ],
      "name": "withdrawPayments",
      "outputs": [],
      "stateMutability": "nonpayable",
      "type": "function"
    }
  ],
  "bytecode": {
    "object": "0x610100604052602860a081815290620019d460c03980516200002a9160099160209091019062000273565b5060408051808201909152600c8082526b3c66696c7465722069643d2760a01b60209092019182526200006091600a9162000273565b5060408051808201909152601f8082527f273e3c666554757262756c656e636520626173654672657175656e63793d27006020909201918252620000a791600b9162000273565b5060408051808201909152601a8082527f272f3e3c6665436f6c6f724d61747269782076616c7565733d270000000000006020909201918252620000ee91600c9162000273565b5060408051808201909152600b8082526a139f1e17b334b63a32b91f60a91b60209092019182526200012391600d9162000273565b5060405180610140016040528061011f8152602001620019fc61011f913980516200015791600e9160209091019062000273565b5060405180610140016040528061011a815260200162001b1b61011a913980516200018b91600f9160209091019062000273565b503480156200019957600080fd5b5060405162001c3538038062001c35833981016040819052620001bc91620003e6565b825183908390620001d590600090602085019062000273565b508051620001eb90600190602084019062000273565b50505062000208620002026200021d60201b60201c565b62000221565b6001600160a01b031660805250620004b09050565b3390565b600680546001600160a01b038381166001600160a01b0319831681179093556040519116919082907f8be0079c531659141344cd1fd0a4f28419497f9722a3daafe3b4186f6b6457e090600090a35050565b828054620002819062000473565b90600052602060002090601f016020900481019282620002a55760008555620002f0565b82601f10620002c057805160ff1916838001178555620002f0565b82800160010185558215620002f0579182015b82811115620002f0578251825591602001919060010190620002d3565b50620002fe92915062000302565b5090565b5b80821115620002fe576000815560010162000303565b634e487b7160e01b600052604160045260246000fd5b600082601f8301126200034157600080fd5b81516001600160401b03808211156200035e576200035e62000319565b604051601f8301601f19908116603f0116810190828211818310171562000389576200038962000319565b81604052838152602092508683858801011115620003a657600080fd5b600091505b83821015620003ca5785820183015181830184015290820190620003ab565b83821115620003dc5760008385830101525b9695505050505050565b600080600060608486031215620003fc57600080fd5b83516001600160401b03808211156200041457600080fd5b62000422878388016200032f565b945060208601519150808211156200043957600080fd5b5062000448868287016200032f565b604086015190935090506001600160a01b03811681146200046857600080fd5b809150509250925092565b600181811c908216806200048857607f821691505b60208210811415620004aa57634e487b7160e01b600052602260045260246000fd5b50919050565b608051611508620004cc600039600061047e01526115086000f3fe60806040526004361061018a5760003560e01c8063755edd17116100d6578063c002d23d1161007f578063e40bf50b11610059578063e40bf50b1461046c578063e985e9c5146104a0578063f2fde38b146104db57600080fd5b8063c002d23d14610403578063c87b56dd1461041f578063d05dcc6a1461043f57600080fd5b806395d89b41116100b057806395d89b41146103ae578063a22cb465146103c3578063b88d4fde146103e357600080fd5b8063755edd17146103675780638da5cb5b1461037a578063902d55a51461039857600080fd5b806331b3eb94116101385780636c0360eb116101125780636c0360eb1461031057806370a0823114610325578063715018a61461035257600080fd5b806331b3eb941461029a57806342842e0e146102ba5780636352211e146102da57600080fd5b8063081812fc11610169578063081812fc1461020a578063095ea7b31461025857806323b872dd1461027a57600080fd5b80629a9b7b1461018f57806301ffc9a7146101b857806306fdde03146101e8575b600080fd5b34801561019b57600080fd5b506101a560085481565b6040519081526020015b60405180910390f35b3480156101c457600080fd5b506101d86101d3366004611150565b6104fb565b60405190151581526020016101af565b3480156101f457600080fd5b506101fd610598565b6040516101af91906111c1565b34801561021657600080fd5b506102406102253660046111d4565b6004602052600090815260409020546001600160a01b031681565b6040516001600160a01b0390911681526020016101af565b34801561026457600080fd5b50610278610273366004611202565b610626565b005b34801561028657600080fd5b5061027861029536600461122e565b610729565b3480156102a657600080fd5b506102786102b536600461126f565b61092b565b3480156102c657600080fd5b506102786102d536600461122e565b610a17565b3480156102e657600080fd5b506102406102f53660046111d4565b6003602052600090815260409020546001600160a01b031681565b34801561031c57600080fd5b506101fd610b0a565b34801561033157600080fd5b506101a561034036600461126f565b60026020526000908152604090205481565b34801561035e57600080fd5b50610278610b17565b6101a561037536600461126f565b610b7d565b34801561038657600080fd5b506006546001600160a01b0316610240565b3480156103a457600080fd5b506101a561271081565b3480156103ba57600080fd5b506101fd610bdc565b3480156103cf57600080fd5b506102786103de36600461128c565b610be9565b3480156103ef57600080fd5b506102786103fe3660046112e0565b610c55565b34801561040f57600080fd5b506101a567011c37937e08000081565b34801561042b57600080fd5b506101fd61043a3660046111d4565b610d3a565b34801561044b57600080fd5b506101a561045a3660046111d4565b60106020526000908152604090205481565b34801561047857600080fd5b506102407f000000000000000000000000000000000000000000000000000000000000000081565b3480156104ac57600080fd5b506101d86104bb3660046113c0565b600560209081526000928352604080842090915290825290205460ff1681565b3480156104e757600080fd5b506102786104f636600461126f565b610dd3565b60007f01ffc9a7000000000000000000000000000000000000000000000000000000006001600160e01b03198316148061055e57507f80ac58cd000000000000000000000000000000000000000000000000000000006001600160e01b03198316145b8061059257507f5b5e139f000000000000000000000000000000000000000000000000000000006001600160e01b03198316145b92915050565b600080546105a5906113ee565b80601f01602080910402602001604051908101604052809291908181526020018280546105d1906113ee565b801561061e5780601f106105f35761010080835404028352916020019161061e565b820191906000526020600020905b81548152906001019060200180831161060157829003601f168201915b505050505081565b6000818152600360205260409020546001600160a01b03163381148061066f57506001600160a01b038116600090815260056020908152604080832033845290915290205460ff165b6106c05760405162461bcd60e51b815260206004820152600e60248201527f4e4f545f415554484f52495a454400000000000000000000000000000000000060448201526064015b60405180910390fd5b600082815260046020526040808220805473ffffffffffffffffffffffffffffffffffffffff19166001600160a01b0387811691821790925591518593918516917f8c5be1e5ebec7d5bd14f71427d1e84f3dd0314c0f7b2291e5b200ac8c7c3b92591a4505050565b6000818152600360205260409020546001600160a01b038481169116146107925760405162461bcd60e51b815260206004820152600a60248201527f57524f4e475f46524f4d0000000000000000000000000000000000000000000060448201526064016106b7565b6001600160a01b0382166107e85760405162461bcd60e51b815260206004820152601160248201527f494e56414c49445f524543495049454e5400000000000000000000000000000060448201526064016106b7565b336001600160a01b038416148061082257506001600160a01b038316600090815260056020908152604080832033845290915290205460ff165b8061084357506000818152600460205260409020546001600160a01b031633145b61088f5760405162461bcd60e51b815260206004820152600e60248201527f4e4f545f415554484f52495a454400000000000000000000000000000000000060448201526064016106b7565b6001600160a01b03808416600081815260026020908152604080832080546000190190559386168083528483208054600101905585835260038252848320805473ffffffffffffffffffffffffffffffffffffffff199081168317909155600490925284832080549092169091559251849392917fddf252ad1be2c89b69c2b068fc378daa952ba7f163c4a11628f55a4df523b3ef91a4505050565b6006546001600160a01b031633146109855760405162461bcd60e51b815260206004820181905260248201527f4f776e61626c653a2063616c6c6572206973206e6f7420746865206f776e657260448201526064016106b7565b60405147906000906001600160a01b0384169083908381818185875af1925050503d80600081146109d2576040519150601f19603f3d011682016040523d82523d6000602084013e6109d7565b606091505b5050905080610a12576040517fd23a9e8900000000000000000000000000000000000000000000000000000000815260040160405180910390fd5b505050565b610a22838383610729565b6001600160a01b0382163b1580610acb5750604051630a85bd0160e11b8082523360048301526001600160a01b03858116602484015260448301849052608060648401526000608484015290919084169063150b7a029060a4016020604051808303816000875af1158015610a9b573d6000803e3d6000fd5b505050506040513d601f19601f82011682018060405250810190610abf9190611429565b6001600160e01b031916145b610a125760405162461bcd60e51b815260206004820152601060248201526f155394d0519157d49150d2541251539560821b60448201526064016106b7565b600780546105a5906113ee565b6006546001600160a01b03163314610b715760405162461bcd60e51b815260206004820181905260248201527f4f776e61626c653a2063616c6c6572206973206e6f7420746865206f776e657260448201526064016106b7565b610b7b6000610eb5565b565b600080600860008154610b8f9061145c565b91829055509050612710811115610bd2576040517fb36c128400000000000000000000000000000000000000000000000000000000815260040160405180910390fd5b6105928382610f14565b600180546105a5906113ee565b3360008181526005602090815260408083206001600160a01b03871680855290835292819020805460ff191686151590811790915590519081529192917f17307eab39ab6107e8899845ad3d59bd9653f200f220920489ca2b5937696c31910160405180910390a35050565b610c60848484610729565b6001600160a01b0383163b1580610cf55750604051630a85bd0160e11b808252906001600160a01b0385169063150b7a0290610ca6903390899088908890600401611477565b6020604051808303816000875af1158015610cc5573d6000803e3d6000fd5b505050506040513d601f19601f82011682018060405250810190610ce99190611429565b6001600160e01b031916145b610d345760405162461bcd60e51b815260206004820152601060248201526f155394d0519157d49150d2541251539560821b60448201526064016106b7565b50505050565b6000818152600360205260409020546060906001600160a01b0316610d8b576040517fd872946b00000000000000000000000000000000000000000000000000000000815260040160405180910390fd5b6000828152601060205260409020546001600160e01b031960015b6008811015610dcb576000610dbc8260206114b3565b84901c60405250600101610da6565b505050919050565b6006546001600160a01b03163314610e2d5760405162461bcd60e51b815260206004820181905260248201527f4f776e61626c653a2063616c6c6572206973206e6f7420746865206f776e657260448201526064016106b7565b6001600160a01b038116610ea95760405162461bcd60e51b815260206004820152602660248201527f4f776e61626c653a206e6577206f776e657220697320746865207a65726f206160448201527f646472657373000000000000000000000000000000000000000000000000000060648201526084016106b7565b610eb281610eb5565b50565b600680546001600160a01b0383811673ffffffffffffffffffffffffffffffffffffffff19831681179093556040519116919082907f8be0079c531659141344cd1fd0a4f28419497f9722a3daafe3b4186f6b6457e090600090a35050565b610f1e8282611007565b6001600160a01b0382163b1580610fc45750604051630a85bd0160e11b80825233600483015260006024830181905260448301849052608060648401526084830152906001600160a01b0384169063150b7a029060a4016020604051808303816000875af1158015610f94573d6000803e3d6000fd5b505050506040513d601f19601f82011682018060405250810190610fb89190611429565b6001600160e01b031916145b6110035760405162461bcd60e51b815260206004820152601060248201526f155394d0519157d49150d2541251539560821b60448201526064016106b7565b5050565b6001600160a01b03821661105d5760405162461bcd60e51b815260206004820152601160248201527f494e56414c49445f524543495049454e5400000000000000000000000000000060448201526064016106b7565b6000818152600360205260409020546001600160a01b0316156110c25760405162461bcd60e51b815260206004820152600e60248201527f414c52454144595f4d494e54454400000000000000000000000000000000000060448201526064016106b7565b6001600160a01b0382166000818152600260209081526040808320805460010190558483526003909152808220805473ffffffffffffffffffffffffffffffffffffffff19168417905551839291907fddf252ad1be2c89b69c2b068fc378daa952ba7f163c4a11628f55a4df523b3ef908290a45050565b6001600160e01b031981168114610eb257600080fd5b60006020828403121561116257600080fd5b813561116d8161113a565b9392505050565b6000815180845260005b8181101561119a5760208185018101518683018201520161117e565b818111156111ac576000602083870101525b50601f01601f19169290920160200192915050565b60208152600061116d6020830184611174565b6000602082840312156111e657600080fd5b5035919050565b6001600160a01b0381168114610eb257600080fd5b6000806040838503121561121557600080fd5b8235611220816111ed565b946020939093013593505050565b60008060006060848603121561124357600080fd5b833561124e816111ed565b9250602084013561125e816111ed565b929592945050506040919091013590565b60006020828403121561128157600080fd5b813561116d816111ed565b6000806040838503121561129f57600080fd5b82356112aa816111ed565b9150602083013580151581146112bf57600080fd5b809150509250929050565b634e487b7160e01b600052604160045260246000fd5b600080600080608085870312156112f657600080fd5b8435611301816111ed565b93506020850135611311816111ed565b925060408501359150606085013567ffffffffffffffff8082111561133557600080fd5b818701915087601f83011261134957600080fd5b81358181111561135b5761135b6112ca565b604051601f8201601f19908116603f01168101908382118183101715611383576113836112ca565b816040528281528a602084870101111561139c57600080fd5b82602086016020830137600060208483010152809550505050505092959194509250565b600080604083850312156113d357600080fd5b82356113de816111ed565b915060208301356112bf816111ed565b600181811c9082168061140257607f821691505b6020821081141561142357634e487b7160e01b600052602260045260246000fd5b50919050565b60006020828403121561143b57600080fd5b815161116d8161113a565b634e487b7160e01b600052601160045260246000fd5b600060001982141561147057611470611446565b5060010190565b60006001600160a01b038087168352808616602084015250836040830152608060608301526114a96080830184611174565b9695505050505050565b60008160001904831182151516156114cd576114cd611446565b50029056fea26469706673582212202aa0ea2dee69b32c9ea24f3b7eb4f83d28178d19b6c182c8fa08f88aca386afc64736f6c634300080c00333c73766720786d6c6e733d27687474703a2f2f7777772e77332e6f72672f323030302f737667273e272f3e3c6665436f6d706f6e656e745472616e736665723e3c666546756e635220747970653d277461626c6527207461626c6556616c7565733d2730202e3032202e3033202e3033202e3039202e3132202e3237202e3931202e33202e303320302030272f3e3c666546756e634720747970653d277461626c6527207461626c6556616c7565733d272e3031202e3039202e3136202e3138202e3338202e3438202e3534202e3733202e3333202e3039202e3031202e3031272f3e3c666546756e634220747970653d277461626c6527207461626c6556616c7565733d272e3033202e3137202e33202e3235202e3337202e3432202e3432202e36202e3137202e303120302030272f3e3c2f6665436f6d706f6e656e745472616e736665723c726563742077696474683d2733353027206865696768743d27333530272066696c7465723d2775726c2823737461727329272f3e3c726563742077696474683d2733353027206865696768743d27333530272066696c7465723d2775726c2823636c6f756473322927206f7061636974793d272e3031272f3e3c726563742077696474683d2733353027206865696768743d27333530272066696c7465723d2775726c2823636c6f7564732927206f7061636974793d272e33272f3e3c706174682069643d276d795061746832272066696c6c3d276e6f6e6527207374726f6b652d6d697465726c696d69743d27313027643d27204d2033303020323030204120313030203130302030203120312033303020313937272f3e",
    "linkReferences": {}
  }
}