{
  "abi": [
    {
      "inputs": [
        {
          "internalType": "string",
          "name": "_name",
          "type": "string"
        },
        {
          "internalType": "string",
          "name": "_symbol",
          "type": "string"
        },
        {
          "internalType": "address",
          "name": "_base64Addr",
          "type": "address"
        }
      ],
      "stateMutability": "nonpayable",
      "type": "constructor"
    },
    {
      "inputs": [],
      "name": "MaxSupply",
      "type": "error"
    },
    {
      "inputs": [],
      "name": "NonExistentTokenURI",
      "type": "error"
    },
    {
      "inputs": [],
      "name": "WithdrawTransfer",
      "type": "error"
    },
    {
      "anonymous": false,
      "inputs": [
        {
          "indexed": true,
          "internalType": "address",
          "name": "owner",
          "type": "address"
        },
        {
          "indexed": true,
          "internalType": "address",
          "name": "spender",
          "type": "address"
        },
        {
          "indexed": true,
          "internalType": "uint256",
          "name": "id",
          "type": "uint256"
        }
      ],
      "name": "Approval",
      "type": "event"
    },
    {
      "anonymous": false,
      "inputs": [
        {
          "indexed": true,
          "internalType": "address",
          "name": "owner",
          "type": "address"
        },
        {
          "indexed": true,
          "internalType": "address",
          "name": "operator",
          "type": "address"
        },
        {
          "indexed": false,
          "internalType": "bool",
          "name": "approved",
          "type": "bool"
        }
      ],
      "name": "ApprovalForAll",
      "type": "event"
    },
    {
      "anonymous": false,
      "inputs": [
        {
          "indexed": true,
          "internalType": "address",
          "name": "previousOwner",
          "type": "address"
        },
        {
          "indexed": true,
          "internalType": "address",
          "name": "newOwner",
          "type": "address"
        }
      ],
      "name": "OwnershipTransferred",
      "type": "event"
    },
    {
      "anonymous": false,
      "inputs": [
        {
          "indexed": true,
          "internalType": "address",
          "name": "from",
          "type": "address"
        },
        {
          "indexed": true,
          "internalType": "address",
          "name": "to",
          "type": "address"
        },
        {
          "indexed": true,
          "internalType": "uint256",
          "name": "id",
          "type": "uint256"
        }
      ],
      "name": "Transfer",
      "type": "event"
    },
    {
      "inputs": [],
      "name": "MINT_PRICE",
      "outputs": [
        {
          "internalType": "uint256",
          "name": "",
          "type": "uint256"
        }
      ],
      "stateMutability": "view",
      "type": "function"
    },
    {
      "inputs": [],
      "name": "TOTAL_SUPPLY",
      "outputs": [
        {
          "internalType": "uint256",
          "name": "",
          "type": "uint256"
        }
      ],
      "stateMutability": "view",
      "type": "function"
    },
    {
      "inputs": [
        {
          "internalType": "address",
          "name": "spender",
          "type": "address"
        },
        {
          "internalType": "uint256",
          "name": "id",
          "type": "uint256"
        }
      ],
      "name": "approve",
      "outputs": [],
      "stateMutability": "nonpayable",
      "type": "function"
    },
    {
      "inputs": [
        {
          "internalType": "uint256",
          "name": "",
          "type": "uint256"
        }
      ],
      "name": "attributes",
      "outputs": [
        {
          "internalType": "uint256",
          "name": "",
          "type": "uint256"
        }
      ],
      "stateMutability": "view",
      "type": "function"
    },
    {
      "inputs": [
        {
          "internalType": "address",
          "name": "",
          "type": "address"
        }
      ],
      "name": "balanceOf",
      "outputs": [
        {
          "internalType": "uint256",
          "name": "",
          "type": "uint256"
        }
      ],
      "stateMutability": "view",
      "type": "function"
    },
    {
      "inputs": [],
      "name": "base64Addr",
      "outputs": [
        {
          "internalType": "address",
          "name": "",
          "type": "address"
        }
      ],
      "stateMutability": "view",
      "type": "function"
    },
    {
      "inputs": [],
      "name": "baseURI",
      "outputs": [
        {
          "internalType": "string",
          "name": "",
          "type": "string"
        }
      ],
      "stateMutability": "view",
      "type": "function"
    },
    {
      "inputs": [],
      "name": "currentTokenId",
      "outputs": [
        {
          "internalType": "uint256",
          "name": "",
          "type": "uint256"
        }
      ],
      "stateMutability": "view",
      "type": "function"
    },
    {
      "inputs": [
        {
          "internalType": "uint256",
          "name": "",
          "type": "uint256"
        }
      ],
      "name": "getApproved",
      "outputs": [
        {
          "internalType": "address",
          "name": "",
          "type": "address"
        }
      ],
      "stateMutability": "view",
      "type": "function"
    },
    {
      "inputs": [
        {
          "internalType": "address",
          "name": "",
          "type": "address"
        },
        {
          "internalType": "address",
          "name": "",
          "type": "address"
        }
      ],
      "name": "isApprovedForAll",
      "outputs": [
        {
          "internalType": "bool",
          "name": "",
          "type": "bool"
        }
      ],
      "stateMutability": "view",
      "type": "function"
    },
    {
      "inputs": [
        {
          "internalType": "address",
          "name": "recipient",
          "type": "address"
        }
      ],
      "name": "mintTo",
      "outputs": [
        {
          "internalType": "uint256",
          "name": "",
          "type": "uint256"
        }
      ],
      "stateMutability": "payable",
      "type": "function"
    },
    {
      "inputs": [],
      "name": "name",
      "outputs": [
        {
          "internalType": "string",
          "name": "",
          "type": "string"
        }
      ],
      "stateMutability": "view",
      "type": "function"
    },
    {
      "inputs": [],
      "name": "owner",
      "outputs": [
        {
          "internalType": "address",
          "name": "",
          "type": "address"
        }
      ],
      "stateMutability": "view",
      "type": "function"
    },
    {
      "inputs": [
        {
          "internalType": "uint256",
          "name": "",
          "type": "uint256"
        }
      ],
      "name": "ownerOf",
      "outputs": [
        {
          "internalType": "address",
          "name": "",
          "type": "address"
        }
      ],
      "stateMutability": "view",
      "type": "function"
    },
    {
      "inputs": [],
      "name": "renounceOwnership",
      "outputs": [],
      "stateMutability": "nonpayable",
      "type": "function"
    },
    {
      "inputs": [
        {
          "internalType": "address",
          "name": "from",
          "type": "address"
        },
        {
          "internalType": "address",
          "name": "to",
          "type": "address"
        },
        {
          "internalType": "uint256",
          "name": "id",
          "type": "uint256"
        }
      ],
      "name": "safeTransferFrom",
      "outputs": [],
      "stateMutability": "nonpayable",
      "type": "function"
    },
    {
      "inputs": [
        {
          "internalType": "address",
          "name": "from",
          "type": "address"
        },
        {
          "internalType": "address",
          "name": "to",
          "type": "address"
        },
        {
          "internalType": "uint256",
          "name": "id",
          "type": "uint256"
        },
        {
          "internalType": "bytes",
          "name": "data",
          "type": "bytes"
        }
      ],
      "name": "safeTransferFrom",
      "outputs": [],
      "stateMutability": "nonpayable",
      "type": "function"
    },
    {
      "inputs": [
        {
          "internalType": "address",
          "name": "operator",
          "type": "address"
        },
        {
          "internalType": "bool",
          "name": "approved",
          "type": "bool"
        }
      ],
      "name": "setApprovalForAll",
      "outputs": [],
      "stateMutability": "nonpayable",
      "type": "function"
    },
    {
      "inputs": [
        {
          "internalType": "bytes4",
          "name": "interfaceId",
          "type": "bytes4"
        }
      ],
      "name": "supportsInterface",
      "outputs": [
        {
          "internalType": "bool",
          "name": "",
          "type": "bool"
        }
      ],
      "stateMutability": "view",
      "type": "function"
    },
    {
      "inputs": [],
      "name": "symbol",
      "outputs": [
        {
          "internalType": "string",
          "name": "",
          "type": "string"
        }
      ],
      "stateMutability": "view",
      "type": "function"
    },
    {
      "inputs": [
        {
          "internalType": "uint256",
          "name": "tokenId",
          "type": "uint256"
        }
      ],
      "name": "tokenURI",
      "outputs": [
        {
          "internalType": "string",
          "name": "",
          "type": "string"
        }
      ],
      "stateMutability": "view",
      "type": "function"
    },
    {
      "inputs": [
        {
          "internalType": "address",
          "name": "from",
          "type": "address"
        },
        {
          "internalType": "address",
          "name": "to",
          "type": "address"
        },
        {
          "internalType": "uint256",
          "name": "id",
          "type": "uint256"
        }
      ],
      "name": "transferFrom",
      "outputs": [],
      "stateMutability": "nonpayable",
      "type": "function"
    },
    {
      "inputs": [
        {
          "internalType": "address",
          "name": "newOwner",
          "type": "address"
        }
      ],
      "name": "transferOwnership",
      "outputs": [],
      "stateMutability": "nonpayable",
      "type": "function"
    },
    {
      "inputs": [
        {
          "internalType": "address payable",
          "name": "payee",
          "type": "address"
        }
      ],
      "name": "withdrawPayments",
      "outputs": [],
      "stateMutability": "nonpayable",
      "type": "function"
    }
  ],
  "bytecode": {
    "object": "0x60a06040523480156200001157600080fd5b50604051620017ec380380620017ec83398101604081905262000034916200025e565b8251839083906200004d906000906020850190620000eb565b50805162000063906001906020840190620000eb565b505050620000806200007a6200009560201b60201c565b62000099565b6001600160a01b031660805250620003289050565b3390565b600680546001600160a01b038381166001600160a01b0319831681179093556040519116919082907f8be0079c531659141344cd1fd0a4f28419497f9722a3daafe3b4186f6b6457e090600090a35050565b828054620000f990620002eb565b90600052602060002090601f0160209004810192826200011d576000855562000168565b82601f106200013857805160ff191683800117855562000168565b8280016001018555821562000168579182015b82811115620001685782518255916020019190600101906200014b565b50620001769291506200017a565b5090565b5b808211156200017657600081556001016200017b565b634e487b7160e01b600052604160045260246000fd5b600082601f830112620001b957600080fd5b81516001600160401b0380821115620001d657620001d662000191565b604051601f8301601f19908116603f0116810190828211818310171562000201576200020162000191565b816040528381526020925086838588010111156200021e57600080fd5b600091505b8382101562000242578582018301518183018401529082019062000223565b83821115620002545760008385830101525b9695505050505050565b6000806000606084860312156200027457600080fd5b83516001600160401b03808211156200028c57600080fd5b6200029a87838801620001a7565b94506020860151915080821115620002b157600080fd5b50620002c086828701620001a7565b604086015190935090506001600160a01b0381168114620002e057600080fd5b809150509250925092565b600181811c908216806200030057607f821691505b602082108114156200032257634e487b7160e01b600052602260045260246000fd5b50919050565b6080516114a862000344600039600061047e01526114a86000f3fe60806040526004361061018a5760003560e01c8063755edd17116100d6578063c002d23d1161007f578063e40bf50b11610059578063e40bf50b1461046c578063e985e9c5146104a0578063f2fde38b146104db57600080fd5b8063c002d23d14610403578063c87b56dd1461041f578063d05dcc6a1461043f57600080fd5b806395d89b41116100b057806395d89b41146103ae578063a22cb465146103c3578063b88d4fde146103e357600080fd5b8063755edd17146103675780638da5cb5b1461037a578063902d55a51461039857600080fd5b806331b3eb94116101385780636c0360eb116101125780636c0360eb1461031057806370a0823114610325578063715018a61461035257600080fd5b806331b3eb941461029a57806342842e0e146102ba5780636352211e146102da57600080fd5b8063081812fc11610169578063081812fc1461020a578063095ea7b31461025857806323b872dd1461027a57600080fd5b80629a9b7b1461018f57806301ffc9a7146101b857806306fdde03146101e8575b600080fd5b34801561019b57600080fd5b506101a560085481565b6040519081526020015b60405180910390f35b3480156101c457600080fd5b506101d86101d336600461111e565b6104fb565b60405190151581526020016101af565b3480156101f457600080fd5b506101fd610598565b6040516101af9190611188565b34801561021657600080fd5b5061024061022536600461119b565b6004602052600090815260409020546001600160a01b031681565b6040516001600160a01b0390911681526020016101af565b34801561026457600080fd5b506102786102733660046111c9565b610626565b005b34801561028657600080fd5b506102786102953660046111f5565b610729565b3480156102a657600080fd5b506102786102b5366004611236565b61092b565b3480156102c657600080fd5b506102786102d53660046111f5565b610a17565b3480156102e657600080fd5b506102406102f536600461119b565b6003602052600090815260409020546001600160a01b031681565b34801561031c57600080fd5b506101fd610b0a565b34801561033157600080fd5b506101a5610340366004611236565b60026020526000908152604090205481565b34801561035e57600080fd5b50610278610b17565b6101a5610375366004611236565b610b7d565b34801561038657600080fd5b506006546001600160a01b0316610240565b3480156103a457600080fd5b506101a561271081565b3480156103ba57600080fd5b506101fd610be4565b3480156103cf57600080fd5b506102786103de366004611253565b610bf1565b3480156103ef57600080fd5b506102786103fe3660046112a7565b610c5d565b34801561040f57600080fd5b506101a567011c37937e08000081565b34801561042b57600080fd5b506101fd61043a36600461119b565b610d42565b34801561044b57600080fd5b506101a561045a36600461119b565b60096020526000908152604090205481565b34801561047857600080fd5b506102407f000000000000000000000000000000000000000000000000000000000000000081565b3480156104ac57600080fd5b506101d86104bb366004611387565b600560209081526000928352604080842090915290825290205460ff1681565b3480156104e757600080fd5b506102786104f6366004611236565b610da1565b60007f01ffc9a7000000000000000000000000000000000000000000000000000000006001600160e01b03198316148061055e57507f80ac58cd000000000000000000000000000000000000000000000000000000006001600160e01b03198316145b8061059257507f5b5e139f000000000000000000000000000000000000000000000000000000006001600160e01b03198316145b92915050565b600080546105a5906113b5565b80601f01602080910402602001604051908101604052809291908181526020018280546105d1906113b5565b801561061e5780601f106105f35761010080835404028352916020019161061e565b820191906000526020600020905b81548152906001019060200180831161060157829003601f168201915b505050505081565b6000818152600360205260409020546001600160a01b03163381148061066f57506001600160a01b038116600090815260056020908152604080832033845290915290205460ff165b6106c05760405162461bcd60e51b815260206004820152600e60248201527f4e4f545f415554484f52495a454400000000000000000000000000000000000060448201526064015b60405180910390fd5b600082815260046020526040808220805473ffffffffffffffffffffffffffffffffffffffff19166001600160a01b0387811691821790925591518593918516917f8c5be1e5ebec7d5bd14f71427d1e84f3dd0314c0f7b2291e5b200ac8c7c3b92591a4505050565b6000818152600360205260409020546001600160a01b038481169116146107925760405162461bcd60e51b815260206004820152600a60248201527f57524f4e475f46524f4d0000000000000000000000000000000000000000000060448201526064016106b7565b6001600160a01b0382166107e85760405162461bcd60e51b815260206004820152601160248201527f494e56414c49445f524543495049454e5400000000000000000000000000000060448201526064016106b7565b336001600160a01b038416148061082257506001600160a01b038316600090815260056020908152604080832033845290915290205460ff165b8061084357506000818152600460205260409020546001600160a01b031633145b61088f5760405162461bcd60e51b815260206004820152600e60248201527f4e4f545f415554484f52495a454400000000000000000000000000000000000060448201526064016106b7565b6001600160a01b03808416600081815260026020908152604080832080546000190190559386168083528483208054600101905585835260038252848320805473ffffffffffffffffffffffffffffffffffffffff199081168317909155600490925284832080549092169091559251849392917fddf252ad1be2c89b69c2b068fc378daa952ba7f163c4a11628f55a4df523b3ef91a4505050565b6006546001600160a01b031633146109855760405162461bcd60e51b815260206004820181905260248201527f4f776e61626c653a2063616c6c6572206973206e6f7420746865206f776e657260448201526064016106b7565b60405147906000906001600160a01b0384169083908381818185875af1925050503d80600081146109d2576040519150601f19603f3d011682016040523d82523d6000602084013e6109d7565b606091505b5050905080610a12576040517fd23a9e8900000000000000000000000000000000000000000000000000000000815260040160405180910390fd5b505050565b610a22838383610729565b6001600160a01b0382163b1580610acb5750604051630a85bd0160e11b8082523360048301526001600160a01b03858116602484015260448301849052608060648401526000608484015290919084169063150b7a029060a4016020604051808303816000875af1158015610a9b573d6000803e3d6000fd5b505050506040513d601f19601f82011682018060405250810190610abf91906113f0565b6001600160e01b031916145b610a125760405162461bcd60e51b815260206004820152601060248201526f155394d0519157d49150d2541251539560821b60448201526064016106b7565b600780546105a5906113b5565b6006546001600160a01b03163314610b715760405162461bcd60e51b815260206004820181905260248201527f4f776e61626c653a2063616c6c6572206973206e6f7420746865206f776e657260448201526064016106b7565b610b7b6000610e83565b565b60088054600091829081610b908461140d565b91829055509050612710811115610bd3576040517fb36c128400000000000000000000000000000000000000000000000000000000815260040160405180910390fd5b610bdd8482610ee2565b9392505050565b600180546105a5906113b5565b3360008181526005602090815260408083206001600160a01b03871680855290835292819020805460ff191686151590811790915590519081529192917f17307eab39ab6107e8899845ad3d59bd9653f200f220920489ca2b5937696c31910160405180910390a35050565b610c68848484610729565b6001600160a01b0383163b1580610cfd5750604051630a85bd0160e11b808252906001600160a01b0385169063150b7a0290610cae903390899088908890600401611436565b6020604051808303816000875af1158015610ccd573d6000803e3d6000fd5b505050506040513d601f19601f82011682018060405250810190610cf191906113f0565b6001600160e01b031916145b610d3c5760405162461bcd60e51b815260206004820152601060248201526f155394d0519157d49150d2541251539560821b60448201526064016106b7565b50505050565b6000818152600360205260409020546060906001600160a01b0316610d93576040517fd872946b00000000000000000000000000000000000000000000000000000000815260040160405180910390fd5b600091909152600960205290565b6006546001600160a01b03163314610dfb5760405162461bcd60e51b815260206004820181905260248201527f4f776e61626c653a2063616c6c6572206973206e6f7420746865206f776e657260448201526064016106b7565b6001600160a01b038116610e775760405162461bcd60e51b815260206004820152602660248201527f4f776e61626c653a206e6577206f776e657220697320746865207a65726f206160448201527f646472657373000000000000000000000000000000000000000000000000000060648201526084016106b7565b610e8081610e83565b50565b600680546001600160a01b0383811673ffffffffffffffffffffffffffffffffffffffff19831681179093556040519116919082907f8be0079c531659141344cd1fd0a4f28419497f9722a3daafe3b4186f6b6457e090600090a35050565b610eec8282610fd5565b6001600160a01b0382163b1580610f925750604051630a85bd0160e11b80825233600483015260006024830181905260448301849052608060648401526084830152906001600160a01b0384169063150b7a029060a4016020604051808303816000875af1158015610f62573d6000803e3d6000fd5b505050506040513d601f19601f82011682018060405250810190610f8691906113f0565b6001600160e01b031916145b610fd15760405162461bcd60e51b815260206004820152601060248201526f155394d0519157d49150d2541251539560821b60448201526064016106b7565b5050565b6001600160a01b03821661102b5760405162461bcd60e51b815260206004820152601160248201527f494e56414c49445f524543495049454e5400000000000000000000000000000060448201526064016106b7565b6000818152600360205260409020546001600160a01b0316156110905760405162461bcd60e51b815260206004820152600e60248201527f414c52454144595f4d494e54454400000000000000000000000000000000000060448201526064016106b7565b6001600160a01b0382166000818152600260209081526040808320805460010190558483526003909152808220805473ffffffffffffffffffffffffffffffffffffffff19168417905551839291907fddf252ad1be2c89b69c2b068fc378daa952ba7f163c4a11628f55a4df523b3ef908290a45050565b6001600160e01b031981168114610e8057600080fd5b60006020828403121561113057600080fd5b8135610bdd81611108565b6000815180845260005b8181101561116157602081850181015186830182015201611145565b81811115611173576000602083870101525b50601f01601f19169290920160200192915050565b602081526000610bdd602083018461113b565b6000602082840312156111ad57600080fd5b5035919050565b6001600160a01b0381168114610e8057600080fd5b600080604083850312156111dc57600080fd5b82356111e7816111b4565b946020939093013593505050565b60008060006060848603121561120a57600080fd5b8335611215816111b4565b92506020840135611225816111b4565b929592945050506040919091013590565b60006020828403121561124857600080fd5b8135610bdd816111b4565b6000806040838503121561126657600080fd5b8235611271816111b4565b91506020830135801515811461128657600080fd5b809150509250929050565b634e487b7160e01b600052604160045260246000fd5b600080600080608085870312156112bd57600080fd5b84356112c8816111b4565b935060208501356112d8816111b4565b925060408501359150606085013567ffffffffffffffff808211156112fc57600080fd5b818701915087601f83011261131057600080fd5b81358181111561132257611322611291565b604051601f8201601f19908116603f0116810190838211818310171561134a5761134a611291565b816040528281528a602084870101111561136357600080fd5b82602086016020830137600060208483010152809550505050505092959194509250565b6000806040838503121561139a57600080fd5b82356113a5816111b4565b91506020830135611286816111b4565b600181811c908216806113c957607f821691505b602082108114156113ea57634e487b7160e01b600052602260045260246000fd5b50919050565b60006020828403121561140257600080fd5b8151610bdd81611108565b600060001982141561142f57634e487b7160e01b600052601160045260246000fd5b5060010190565b60006001600160a01b03808716835280861660208401525083604083015260806060830152611468608083018461113b565b969550505050505056fea264697066735822122006101b18ba3d935ce103f6e622cecf35c0612ccc83f962c84898d8c616a8850264736f6c634300080c0033",
    "linkReferences": {}
  }
}