{
  "abi": [
    {
      "inputs": [
        {
          "internalType": "address",
          "name": "p0",
          "type": "address"
        },
        {
          "internalType": "address",
          "name": "p1",
          "type": "address"
        },
        {
          "internalType": "string",
          "name": "p2",
          "type": "string"
        }
      ],
      "name": "log",
      "outputs": [],
      "stateMutability": "view",
      "type": "function"
    },
    {
      "inputs": [
        {
          "internalType": "address",
          "name": "p0",
          "type": "address"
        },
        {
          "internalType": "address",
          "name": "p1",
          "type": "address"
        },
        {
          "internalType": "address",
          "name": "p2",
          "type": "address"
        }
      ],
      "name": "log",
      "outputs": [],
      "stateMutability": "view",
      "type": "function"
    },
    {
      "inputs": [
        {
          "internalType": "bool",
          "name": "p0",
          "type": "bool"
        },
        {
          "internalType": "uint256",
          "name": "p1",
          "type": "uint256"
        },
        {
          "internalType": "address",
          "name": "p2",
          "type": "address"
        }
      ],
      "name": "log",
      "outputs": [],
      "stateMutability": "view",
      "type": "function"
    },
    {
      "inputs": [
        {
          "internalType": "string",
          "name": "p0",
          "type": "string"
        },
        {
          "internalType": "address",
          "name": "p1",
          "type": "address"
        },
        {
          "internalType": "uint256",
          "name": "p2",
          "type": "uint256"
        }
      ],
      "name": "log",
      "outputs": [],
      "stateMutability": "view",
      "type": "function"
    },
    {
      "inputs": [
        {
          "internalType": "bool",
          "name": "p0",
          "type": "bool"
        },
        {
          "internalType": "bool",
          "name": "p1",
          "type": "bool"
        },
        {
          "internalType": "address",
          "name": "p2",
          "type": "address"
        }
      ],
      "name": "log",
      "outputs": [],
      "stateMutability": "view",
      "type": "function"
    },
    {
      "inputs": [
        {
          "internalType": "bool",
          "name": "p0",
          "type": "bool"
        },
        {
          "internalType": "string",
          "name": "p1",
          "type": "string"
        },
        {
          "internalType": "uint256",
          "name": "p2",
          "type": "uint256"
        }
      ],
      "name": "log",
      "outputs": [],
      "stateMutability": "view",
      "type": "function"
    },
    {
      "inputs": [
        {
          "internalType": "bool",
          "name": "p0",
          "type": "bool"
        },
        {
          "internalType": "bool",
          "name": "p1",
          "type": "bool"
        },
        {
          "internalType": "uint256",
          "name": "p2",
          "type": "uint256"
        }
      ],
      "name": "log",
      "outputs": [],
      "stateMutability": "view",
      "type": "function"
    },
    {
      "inputs": [
        {
          "internalType": "address",
          "name": "p0",
          "type": "address"
        },
        {
          "internalType": "address",
          "name": "p1",
          "type": "address"
        },
        {
          "internalType": "uint256",
          "name": "p2",
          "type": "uint256"
        }
      ],
      "name": "log",
      "outputs": [],
      "stateMutability": "view",
      "type": "function"
    },
    {
      "inputs": [
        {
          "internalType": "bool",
          "name": "p0",
          "type": "bool"
        },
        {
          "internalType": "address",
          "name": "p1",
          "type": "address"
        },
        {
          "internalType": "bool",
          "name": "p2",
          "type": "bool"
        }
      ],
      "name": "log",
      "outputs": [],
      "stateMutability": "view",
      "type": "function"
    },
    {
      "inputs": [
        {
          "internalType": "string",
          "name": "p0",
          "type": "string"
        },
        {
          "internalType": "uint256",
          "name": "p1",
          "type": "uint256"
        },
        {
          "internalType": "address",
          "name": "p2",
          "type": "address"
        }
      ],
      "name": "log",
      "outputs": [],
      "stateMutability": "view",
      "type": "function"
    },
    {
      "inputs": [
        {
          "internalType": "uint256",
          "name": "p0",
          "type": "uint256"
        },
        {
          "internalType": "bool",
          "name": "p1",
          "type": "bool"
        }
      ],
      "name": "log",
      "outputs": [],
      "stateMutability": "view",
      "type": "function"
    },
    {
      "inputs": [
        {
          "internalType": "uint256",
          "name": "p0",
          "type": "uint256"
        },
        {
          "internalType": "bool",
          "name": "p1",
          "type": "bool"
        },
        {
          "internalType": "uint256",
          "name": "p2",
          "type": "uint256"
        }
      ],
      "name": "log",
      "outputs": [],
      "stateMutability": "view",
      "type": "function"
    },
    {
      "inputs": [
        {
          "internalType": "uint256",
          "name": "p0",
          "type": "uint256"
        },
        {
          "internalType": "bool",
          "name": "p1",
          "type": "bool"
        },
        {
          "internalType": "bool",
          "name": "p2",
          "type": "bool"
        }
      ],
      "name": "log",
      "outputs": [],
      "stateMutability": "view",
      "type": "function"
    },
    {
      "inputs": [
        {
          "internalType": "address",
          "name": "p0",
          "type": "address"
        },
        {
          "internalType": "bool",
          "name": "p1",
          "type": "bool"
        },
        {
          "internalType": "string",
          "name": "p2",
          "type": "string"
        }
      ],
      "name": "log",
      "outputs": [],
      "stateMutability": "view",
      "type": "function"
    },
    {
      "inputs": [
        {
          "internalType": "bool",
          "name": "p0",
          "type": "bool"
        },
        {
          "internalType": "bool",
          "name": "p1",
          "type": "bool"
        },
        {
          "internalType": "string",
          "name": "p2",
          "type": "string"
        }
      ],
      "name": "log",
      "outputs": [],
      "stateMutability": "view",
      "type": "function"
    },
    {
      "inputs": [
        {
          "internalType": "bool",
          "name": "p0",
          "type": "bool"
        },
        {
          "internalType": "bool",
          "name": "p1",
          "type": "bool"
        }
      ],
      "name": "log",
      "outputs": [],
      "stateMutability": "view",
      "type": "function"
    },
    {
      "inputs": [
        {
          "internalType": "address",
          "name": "p0",
          "type": "address"
        }
      ],
      "name": "log",
      "outputs": [],
      "stateMutability": "view",
      "type": "function"
    },
    {
      "inputs": [
        {
          "internalType": "string",
          "name": "p0",
          "type": "string"
        },
        {
          "internalType": "string",
          "name": "p1",
          "type": "string"
        },
        {
          "internalType": "string",
          "name": "p2",
          "type": "string"
        }
      ],
      "name": "log",
      "outputs": [],
      "stateMutability": "view",
      "type": "function"
    },
    {
      "inputs": [
        {
          "internalType": "string",
          "name": "p0",
          "type": "string"
        },
        {
          "internalType": "address",
          "name": "p1",
          "type": "address"
        }
      ],
      "name": "log",
      "outputs": [],
      "stateMutability": "view",
      "type": "function"
    },
    {
      "inputs": [
        {
          "internalType": "bool",
          "name": "p0",
          "type": "bool"
        }
      ],
      "name": "log",
      "outputs": [],
      "stateMutability": "view",
      "type": "function"
    },
    {
      "inputs": [
        {
          "internalType": "uint256",
          "name": "p0",
          "type": "uint256"
        },
        {
          "internalType": "bool",
          "name": "p1",
          "type": "bool"
        },
        {
          "internalType": "address",
          "name": "p2",
          "type": "address"
        }
      ],
      "name": "log",
      "outputs": [],
      "stateMutability": "view",
      "type": "function"
    },
    {
      "inputs": [
        {
          "internalType": "bool",
          "name": "p0",
          "type": "bool"
        },
        {
          "internalType": "uint256",
          "name": "p1",
          "type": "uint256"
        },
        {
          "internalType": "uint256",
          "name": "p2",
          "type": "uint256"
        }
      ],
      "name": "log",
      "outputs": [],
      "stateMutability": "view",
      "type": "function"
    },
    {
      "inputs": [
        {
          "internalType": "uint256",
          "name": "p0",
          "type": "uint256"
        },
        {
          "internalType": "string",
          "name": "p1",
          "type": "string"
        },
        {
          "internalType": "uint256",
          "name": "p2",
          "type": "uint256"
        }
      ],
      "name": "log",
      "outputs": [],
      "stateMutability": "view",
      "type": "function"
    },
    {
      "inputs": [
        {
          "internalType": "bool",
          "name": "p0",
          "type": "bool"
        },
        {
          "internalType": "uint256",
          "name": "p1",
          "type": "uint256"
        }
      ],
      "name": "log",
      "outputs": [],
      "stateMutability": "view",
      "type": "function"
    },
    {
      "inputs": [
        {
          "internalType": "string",
          "name": "p0",
          "type": "string"
        }
      ],
      "name": "log",
      "outputs": [],
      "stateMutability": "view",
      "type": "function"
    },
    {
      "inputs": [
        {
          "internalType": "uint256",
          "name": "p0",
          "type": "uint256"
        },
        {
          "internalType": "uint256",
          "name": "p1",
          "type": "uint256"
        },
        {
          "internalType": "bool",
          "name": "p2",
          "type": "bool"
        }
      ],
      "name": "log",
      "outputs": [],
      "stateMutability": "view",
      "type": "function"
    },
    {
      "inputs": [
        {
          "internalType": "string",
          "name": "p0",
          "type": "string"
        },
        {
          "internalType": "string",
          "name": "p1",
          "type": "string"
        }
      ],
      "name": "log",
      "outputs": [],
      "stateMutability": "view",
      "type": "function"
    },
    {
      "inputs": [
        {
          "internalType": "uint256",
          "name": "p0",
          "type": "uint256"
        },
        {
          "internalType": "string",
          "name": "p1",
          "type": "string"
        },
        {
          "internalType": "bool",
          "name": "p2",
          "type": "bool"
        }
      ],
      "name": "log",
      "outputs": [],
      "stateMutability": "view",
      "type": "function"
    },
    {
      "inputs": [
        {
          "internalType": "bool",
          "name": "p0",
          "type": "bool"
        },
        {
          "internalType": "bool",
          "name": "p1",
          "type": "bool"
        },
        {
          "internalType": "bool",
          "name": "p2",
          "type": "bool"
        }
      ],
      "name": "log",
      "outputs": [],
      "stateMutability": "view",
      "type": "function"
    },
    {
      "inputs": [],
      "name": "log",
      "outputs": [],
      "stateMutability": "view",
      "type": "function"
    },
    {
      "inputs": [
        {
          "internalType": "string",
          "name": "p0",
          "type": "string"
        },
        {
          "internalType": "string",
          "name": "p1",
          "type": "string"
        },
        {
          "internalType": "uint256",
          "name": "p2",
          "type": "uint256"
        }
      ],
      "name": "log",
      "outputs": [],
      "stateMutability": "view",
      "type": "function"
    },
    {
      "inputs": [
        {
          "internalType": "string",
          "name": "p0",
          "type": "string"
        },
        {
          "internalType": "uint256",
          "name": "p1",
          "type": "uint256"
        },
        {
          "internalType": "string",
          "name": "p2",
          "type": "string"
        }
      ],
      "name": "log",
      "outputs": [],
      "stateMutability": "view",
      "type": "function"
    },
    {
      "inputs": [
        {
          "internalType": "uint256",
          "name": "p0",
          "type": "uint256"
        },
        {
          "internalType": "address",
          "name": "p1",
          "type": "address"
        },
        {
          "internalType": "uint256",
          "name": "p2",
          "type": "uint256"
        }
      ],
      "name": "log",
      "outputs": [],
      "stateMutability": "view",
      "type": "function"
    },
    {
      "inputs": [
        {
          "internalType": "uint256",
          "name": "p0",
          "type": "uint256"
        },
        {
          "internalType": "uint256",
          "name": "p1",
          "type": "uint256"
        },
        {
          "internalType": "address",
          "name": "p2",
          "type": "address"
        }
      ],
      "name": "log",
      "outputs": [],
      "stateMutability": "view",
      "type": "function"
    },
    {
      "inputs": [
        {
          "internalType": "bool",
          "name": "p0",
          "type": "bool"
        },
        {
          "internalType": "address",
          "name": "p1",
          "type": "address"
        },
        {
          "internalType": "uint256",
          "name": "p2",
          "type": "uint256"
        }
      ],
      "name": "log",
      "outputs": [],
      "stateMutability": "view",
      "type": "function"
    },
    {
      "inputs": [
        {
          "internalType": "uint256",
          "name": "p0",
          "type": "uint256"
        },
        {
          "internalType": "address",
          "name": "p1",
          "type": "address"
        },
        {
          "internalType": "string",
          "name": "p2",
          "type": "string"
        }
      ],
      "name": "log",
      "outputs": [],
      "stateMutability": "view",
      "type": "function"
    },
    {
      "inputs": [
        {
          "internalType": "uint256",
          "name": "p0",
          "type": "uint256"
        },
        {
          "internalType": "string",
          "name": "p1",
          "type": "string"
        }
      ],
      "name": "log",
      "outputs": [],
      "stateMutability": "view",
      "type": "function"
    },
    {
      "inputs": [
        {
          "internalType": "address",
          "name": "p0",
          "type": "address"
        },
        {
          "internalType": "uint256",
          "name": "p1",
          "type": "uint256"
        },
        {
          "internalType": "bool",
          "name": "p2",
          "type": "bool"
        }
      ],
      "name": "log",
      "outputs": [],
      "stateMutability": "view",
      "type": "function"
    },
    {
      "inputs": [
        {
          "internalType": "address",
          "name": "p0",
          "type": "address"
        },
        {
          "internalType": "string",
          "name": "p1",
          "type": "string"
        },
        {
          "internalType": "uint256",
          "name": "p2",
          "type": "uint256"
        }
      ],
      "name": "log",
      "outputs": [],
      "stateMutability": "view",
      "type": "function"
    },
    {
      "inputs": [
        {
          "internalType": "uint256",
          "name": "p0",
          "type": "uint256"
        },
        {
          "internalType": "address",
          "name": "p1",
          "type": "address"
        }
      ],
      "name": "log",
      "outputs": [],
      "stateMutability": "view",
      "type": "function"
    },
    {
      "inputs": [
        {
          "internalType": "uint256",
          "name": "p0",
          "type": "uint256"
        },
        {
          "internalType": "uint256",
          "name": "p1",
          "type": "uint256"
        },
        {
          "internalType": "string",
          "name": "p2",
          "type": "string"
        }
      ],
      "name": "log",
      "outputs": [],
      "stateMutability": "view",
      "type": "function"
    },
    {
      "inputs": [
        {
          "internalType": "address",
          "name": "p0",
          "type": "address"
        },
        {
          "internalType": "string",
          "name": "p1",
          "type": "string"
        }
      ],
      "name": "log",
      "outputs": [],
      "stateMutability": "view",
      "type": "function"
    },
    {
      "inputs": [
        {
          "internalType": "address",
          "name": "p0",
          "type": "address"
        },
        {
          "internalType": "bool",
          "name": "p1",
          "type": "bool"
        }
      ],
      "name": "log",
      "outputs": [],
      "stateMutability": "view",
      "type": "function"
    },
    {
      "inputs": [
        {
          "internalType": "uint256",
          "name": "p0",
          "type": "uint256"
        },
        {
          "internalType": "string",
          "name": "p1",
          "type": "string"
        },
        {
          "internalType": "address",
          "name": "p2",
          "type": "address"
        }
      ],
      "name": "log",
      "outputs": [],
      "stateMutability": "view",
      "type": "function"
    },
    {
      "inputs": [
        {
          "internalType": "address",
          "name": "p0",
          "type": "address"
        },
        {
          "internalType": "uint256",
          "name": "p1",
          "type": "uint256"
        },
        {
          "internalType": "address",
          "name": "p2",
          "type": "address"
        }
      ],
      "name": "log",
      "outputs": [],
      "stateMutability": "view",
      "type": "function"
    },
    {
      "inputs": [
        {
          "internalType": "address",
          "name": "p0",
          "type": "address"
        },
        {
          "internalType": "uint256",
          "name": "p1",
          "type": "uint256"
        }
      ],
      "name": "log",
      "outputs": [],
      "stateMutability": "view",
      "type": "function"
    },
    {
      "inputs": [
        {
          "internalType": "string",
          "name": "p0",
          "type": "string"
        },
        {
          "internalType": "bool",
          "name": "p1",
          "type": "bool"
        },
        {
          "internalType": "bool",
          "name": "p2",
          "type": "bool"
        }
      ],
      "name": "log",
      "outputs": [],
      "stateMutability": "view",
      "type": "function"
    },
    {
      "inputs": [
        {
          "internalType": "bool",
          "name": "p0",
          "type": "bool"
        },
        {
          "internalType": "address",
          "name": "p1",
          "type": "address"
        }
      ],
      "name": "log",
      "outputs": [],
      "stateMutability": "view",
      "type": "function"
    },
    {
      "inputs": [
        {
          "internalType": "uint256",
          "name": "p0",
          "type": "uint256"
        },
        {
          "internalType": "bool",
          "name": "p1",
          "type": "bool"
        },
        {
          "internalType": "string",
          "name": "p2",
          "type": "string"
        }
      ],
      "name": "log",
      "outputs": [],
      "stateMutability": "view",
      "type": "function"
    },
    {
      "inputs": [
        {
          "internalType": "bool",
          "name": "p0",
          "type": "bool"
        },
        {
          "internalType": "string",
          "name": "p1",
          "type": "string"
        }
      ],
      "name": "log",
      "outputs": [],
      "stateMutability": "view",
      "type": "function"
    },
    {
      "inputs": [
        {
          "internalType": "string",
          "name": "p0",
          "type": "string"
        },
        {
          "internalType": "bool",
          "name": "p1",
          "type": "bool"
        },
        {
          "internalType": "address",
          "name": "p2",
          "type": "address"
        }
      ],
      "name": "log",
      "outputs": [],
      "stateMutability": "view",
      "type": "function"
    },
    {
      "inputs": [
        {
          "internalType": "bool",
          "name": "p0",
          "type": "bool"
        },
        {
          "internalType": "string",
          "name": "p1",
          "type": "string"
        },
        {
          "internalType": "address",
          "name": "p2",
          "type": "address"
        }
      ],
      "name": "log",
      "outputs": [],
      "stateMutability": "view",
      "type": "function"
    },
    {
      "inputs": [
        {
          "internalType": "string",
          "name": "p0",
          "type": "string"
        },
        {
          "internalType": "string",
          "name": "p1",
          "type": "string"
        },
        {
          "internalType": "address",
          "name": "p2",
          "type": "address"
        }
      ],
      "name": "log",
      "outputs": [],
      "stateMutability": "view",
      "type": "function"
    },
    {
      "inputs": [
        {
          "internalType": "uint256",
          "name": "p0",
          "type": "uint256"
        },
        {
          "internalType": "address",
          "name": "p1",
          "type": "address"
        },
        {
          "internalType": "bool",
          "name": "p2",
          "type": "bool"
        }
      ],
      "name": "log",
      "outputs": [],
      "stateMutability": "view",
      "type": "function"
    },
    {
      "inputs": [
        {
          "internalType": "address",
          "name": "p0",
          "type": "address"
        },
        {
          "internalType": "bool",
          "name": "p1",
          "type": "bool"
        },
        {
          "internalType": "uint256",
          "name": "p2",
          "type": "uint256"
        }
      ],
      "name": "log",
      "outputs": [],
      "stateMutability": "view",
      "type": "function"
    },
    {
      "inputs": [
        {
          "internalType": "address",
          "name": "p0",
          "type": "address"
        },
        {
          "internalType": "uint256",
          "name": "p1",
          "type": "uint256"
        },
        {
          "internalType": "string",
          "name": "p2",
          "type": "string"
        }
      ],
      "name": "log",
      "outputs": [],
      "stateMutability": "view",
      "type": "function"
    },
    {
      "inputs": [
        {
          "internalType": "bool",
          "name": "p0",
          "type": "bool"
        },
        {
          "internalType": "string",
          "name": "p1",
          "type": "string"
        },
        {
          "internalType": "string",
          "name": "p2",
          "type": "string"
        }
      ],
      "name": "log",
      "outputs": [],
      "stateMutability": "view",
      "type": "function"
    },
    {
      "inputs": [
        {
          "internalType": "string",
          "name": "p0",
          "type": "string"
        },
        {
          "internalType": "string",
          "name": "p1",
          "type": "string"
        },
        {
          "internalType": "bool",
          "name": "p2",
          "type": "bool"
        }
      ],
      "name": "log",
      "outputs": [],
      "stateMutability": "view",
      "type": "function"
    },
    {
      "inputs": [
        {
          "internalType": "uint256",
          "name": "p0",
          "type": "uint256"
        },
        {
          "internalType": "string",
          "name": "p1",
          "type": "string"
        },
        {
          "internalType": "string",
          "name": "p2",
          "type": "string"
        }
      ],
      "name": "log",
      "outputs": [],
      "stateMutability": "view",
      "type": "function"
    },
    {
      "inputs": [
        {
          "internalType": "string",
          "name": "p0",
          "type": "string"
        },
        {
          "internalType": "uint256",
          "name": "p1",
          "type": "uint256"
        }
      ],
      "name": "log",
      "outputs": [],
      "stateMutability": "view",
      "type": "function"
    },
    {
      "inputs": [
        {
          "internalType": "address",
          "name": "p0",
          "type": "address"
        },
        {
          "internalType": "uint256",
          "name": "p1",
          "type": "uint256"
        },
        {
          "internalType": "uint256",
          "name": "p2",
          "type": "uint256"
        }
      ],
      "name": "log",
      "outputs": [],
      "stateMutability": "view",
      "type": "function"
    },
    {
      "inputs": [
        {
          "internalType": "uint256",
          "name": "p0",
          "type": "uint256"
        },
        {
          "internalType": "address",
          "name": "p1",
          "type": "address"
        },
        {
          "internalType": "address",
          "name": "p2",
          "type": "address"
        }
      ],
      "name": "log",
      "outputs": [],
      "stateMutability": "view",
      "type": "function"
    },
    {
      "inputs": [
        {
          "internalType": "string",
          "name": "p0",
          "type": "string"
        },
        {
          "internalType": "bool",
          "name": "p1",
          "type": "bool"
        }
      ],
      "name": "log",
      "outputs": [],
      "stateMutability": "view",
      "type": "function"
    },
    {
      "inputs": [
        {
          "internalType": "bool",
          "name": "p0",
          "type": "bool"
        },
        {
          "internalType": "uint256",
          "name": "p1",
          "type": "uint256"
        },
        {
          "internalType": "string",
          "name": "p2",
          "type": "string"
        }
      ],
      "name": "log",
      "outputs": [],
      "stateMutability": "view",
      "type": "function"
    },
    {
      "inputs": [
        {
          "internalType": "string",
          "name": "p0",
          "type": "string"
        },
        {
          "internalType": "address",
          "name": "p1",
          "type": "address"
        },
        {
          "internalType": "bool",
          "name": "p2",
          "type": "bool"
        }
      ],
      "name": "log",
      "outputs": [],
      "stateMutability": "view",
      "type": "function"
    },
    {
      "inputs": [
        {
          "internalType": "string",
          "name": "p0",
          "type": "string"
        },
        {
          "internalType": "bool",
          "name": "p1",
          "type": "bool"
        },
        {
          "internalType": "uint256",
          "name": "p2",
          "type": "uint256"
        }
      ],
      "name": "log",
      "outputs": [],
      "stateMutability": "view",
      "type": "function"
    },
    {
      "inputs": [
        {
          "internalType": "string",
          "name": "p0",
          "type": "string"
        },
        {
          "internalType": "uint256",
          "name": "p1",
          "type": "uint256"
        },
        {
          "internalType": "uint256",
          "name": "p2",
          "type": "uint256"
        }
      ],
      "name": "log",
      "outputs": [],
      "stateMutability": "view",
      "type": "function"
    },
    {
      "inputs": [
        {
          "internalType": "string",
          "name": "p0",
          "type": "string"
        },
        {
          "internalType": "uint256",
          "name": "p1",
          "type": "uint256"
        },
        {
          "internalType": "bool",
          "name": "p2",
          "type": "bool"
        }
      ],
      "name": "log",
      "outputs": [],
      "stateMutability": "view",
      "type": "function"
    },
    {
      "inputs": [
        {
          "internalType": "address",
          "name": "p0",
          "type": "address"
        },
        {
          "internalType": "string",
          "name": "p1",
          "type": "string"
        },
        {
          "internalType": "bool",
          "name": "p2",
          "type": "bool"
        }
      ],
      "name": "log",
      "outputs": [],
      "stateMutability": "view",
      "type": "function"
    },
    {
      "inputs": [
        {
          "internalType": "uint256",
          "name": "p0",
          "type": "uint256"
        },
        {
          "internalType": "uint256",
          "name": "p1",
          "type": "uint256"
        },
        {
          "internalType": "uint256",
          "name": "p2",
          "type": "uint256"
        }
      ],
      "name": "log",
      "outputs": [],
      "stateMutability": "view",
      "type": "function"
    },
    {
      "inputs": [
        {
          "internalType": "bool",
          "name": "p0",
          "type": "bool"
        },
        {
          "internalType": "address",
          "name": "p1",
          "type": "address"
        },
        {
          "internalType": "address",
          "name": "p2",
          "type": "address"
        }
      ],
      "name": "log",
      "outputs": [],
      "stateMutability": "view",
      "type": "function"
    },
    {
      "inputs": [
        {
          "internalType": "address",
          "name": "p0",
          "type": "address"
        },
        {
          "internalType": "address",
          "name": "p1",
          "type": "address"
        }
      ],
      "name": "log",
      "outputs": [],
      "stateMutability": "view",
      "type": "function"
    },
    {
      "inputs": [
        {
          "internalType": "bool",
          "name": "p0",
          "type": "bool"
        },
        {
          "internalType": "string",
          "name": "p1",
          "type": "string"
        },
        {
          "internalType": "bool",
          "name": "p2",
          "type": "bool"
        }
      ],
      "name": "log",
      "outputs": [],
      "stateMutability": "view",
      "type": "function"
    },
    {
      "inputs": [
        {
          "internalType": "bool",
          "name": "p0",
          "type": "bool"
        },
        {
          "internalType": "address",
          "name": "p1",
          "type": "address"
        },
        {
          "internalType": "string",
          "name": "p2",
          "type": "string"
        }
      ],
      "name": "log",
      "outputs": [],
      "stateMutability": "view",
      "type": "function"
    },
    {
      "inputs": [
        {
          "internalType": "string",
          "name": "p0",
          "type": "string"
        },
        {
          "internalType": "address",
          "name": "p1",
          "type": "address"
        },
        {
          "internalType": "string",
          "name": "p2",
          "type": "string"
        }
      ],
      "name": "log",
      "outputs": [],
      "stateMutability": "view",
      "type": "function"
    },
    {
      "inputs": [
        {
          "internalType": "string",
          "name": "p0",
          "type": "string"
        },
        {
          "internalType": "bool",
          "name": "p1",
          "type": "bool"
        },
        {
          "internalType": "string",
          "name": "p2",
          "type": "string"
        }
      ],
      "name": "log",
      "outputs": [],
      "stateMutability": "view",
      "type": "function"
    },
    {
      "inputs": [
        {
          "internalType": "bool",
          "name": "p0",
          "type": "bool"
        },
        {
          "internalType": "uint256",
          "name": "p1",
          "type": "uint256"
        },
        {
          "internalType": "bool",
          "name": "p2",
          "type": "bool"
        }
      ],
      "name": "log",
      "outputs": [],
      "stateMutability": "view",
      "type": "function"
    },
    {
      "inputs": [
        {
          "internalType": "address",
          "name": "p0",
          "type": "address"
        },
        {
          "internalType": "bool",
          "name": "p1",
          "type": "bool"
        },
        {
          "internalType": "bool",
          "name": "p2",
          "type": "bool"
        }
      ],
      "name": "log",
      "outputs": [],
      "stateMutability": "view",
      "type": "function"
    },
    {
      "inputs": [
        {
          "internalType": "address",
          "name": "p0",
          "type": "address"
        },
        {
          "internalType": "string",
          "name": "p1",
          "type": "string"
        },
        {
          "internalType": "address",
          "name": "p2",
          "type": "address"
        }
      ],
      "name": "log",
      "outputs": [],
      "stateMutability": "view",
      "type": "function"
    },
    {
      "inputs": [
        {
          "internalType": "address",
          "name": "p0",
          "type": "address"
        },
        {
          "internalType": "bool",
          "name": "p1",
          "type": "bool"
        },
        {
          "internalType": "address",
          "name": "p2",
          "type": "address"
        }
      ],
      "name": "log",
      "outputs": [],
      "stateMutability": "view",
      "type": "function"
    },
    {
      "inputs": [
        {
          "internalType": "uint256",
          "name": "p0",
          "type": "uint256"
        },
        {
          "internalType": "uint256",
          "name": "p1",
          "type": "uint256"
        }
      ],
      "name": "log",
      "outputs": [],
      "stateMutability": "view",
      "type": "function"
    },
    {
      "inputs": [
        {
          "internalType": "uint256",
          "name": "p0",
          "type": "uint256"
        }
      ],
      "name": "log",
      "outputs": [],
      "stateMutability": "view",
      "type": "function"
    },
    {
      "inputs": [
        {
          "internalType": "address",
          "name": "p0",
          "type": "address"
        },
        {
          "internalType": "string",
          "name": "p1",
          "type": "string"
        },
        {
          "internalType": "string",
          "name": "p2",
          "type": "string"
        }
      ],
      "name": "log",
      "outputs": [],
      "stateMutability": "view",
      "type": "function"
    },
    {
      "inputs": [
        {
          "internalType": "string",
          "name": "p0",
          "type": "string"
        },
        {
          "internalType": "address",
          "name": "p1",
          "type": "address"
        },
        {
          "internalType": "address",
          "name": "p2",
          "type": "address"
        }
      ],
      "name": "log",
      "outputs": [],
      "stateMutability": "view",
      "type": "function"
    },
    {
      "inputs": [
        {
          "internalType": "address",
          "name": "p0",
          "type": "address"
        }
      ],
      "name": "logAddress",
      "outputs": [],
      "stateMutability": "view",
      "type": "function"
    },
    {
      "inputs": [
        {
          "internalType": "bool",
          "name": "p0",
          "type": "bool"
        }
      ],
      "name": "logBool",
      "outputs": [],
      "stateMutability": "view",
      "type": "function"
    },
    {
      "inputs": [
        {
          "internalType": "bytes",
          "name": "p0",
          "type": "bytes"
        }
      ],
      "name": "logBytes",
      "outputs": [],
      "stateMutability": "view",
      "type": "function"
    },
    {
      "inputs": [
        {
          "internalType": "bytes1",
          "name": "p0",
          "type": "bytes1"
        }
      ],
      "name": "logBytes1",
      "outputs": [],
      "stateMutability": "view",
      "type": "function"
    },
    {
      "inputs": [
        {
          "internalType": "bytes10",
          "name": "p0",
          "type": "bytes10"
        }
      ],
      "name": "logBytes10",
      "outputs": [],
      "stateMutability": "view",
      "type": "function"
    },
    {
      "inputs": [
        {
          "internalType": "bytes11",
          "name": "p0",
          "type": "bytes11"
        }
      ],
      "name": "logBytes11",
      "outputs": [],
      "stateMutability": "view",
      "type": "function"
    },
    {
      "inputs": [
        {
          "internalType": "bytes12",
          "name": "p0",
          "type": "bytes12"
        }
      ],
      "name": "logBytes12",
      "outputs": [],
      "stateMutability": "view",
      "type": "function"
    },
    {
      "inputs": [
        {
          "internalType": "bytes13",
          "name": "p0",
          "type": "bytes13"
        }
      ],
      "name": "logBytes13",
      "outputs": [],
      "stateMutability": "view",
      "type": "function"
    },
    {
      "inputs": [
        {
          "internalType": "bytes14",
          "name": "p0",
          "type": "bytes14"
        }
      ],
      "name": "logBytes14",
      "outputs": [],
      "stateMutability": "view",
      "type": "function"
    },
    {
      "inputs": [
        {
          "internalType": "bytes15",
          "name": "p0",
          "type": "bytes15"
        }
      ],
      "name": "logBytes15",
      "outputs": [],
      "stateMutability": "view",
      "type": "function"
    },
    {
      "inputs": [
        {
          "internalType": "bytes16",
          "name": "p0",
          "type": "bytes16"
        }
      ],
      "name": "logBytes16",
      "outputs": [],
      "stateMutability": "view",
      "type": "function"
    },
    {
      "inputs": [
        {
          "internalType": "bytes17",
          "name": "p0",
          "type": "bytes17"
        }
      ],
      "name": "logBytes17",
      "outputs": [],
      "stateMutability": "view",
      "type": "function"
    },
    {
      "inputs": [
        {
          "internalType": "bytes18",
          "name": "p0",
          "type": "bytes18"
        }
      ],
      "name": "logBytes18",
      "outputs": [],
      "stateMutability": "view",
      "type": "function"
    },
    {
      "inputs": [
        {
          "internalType": "bytes19",
          "name": "p0",
          "type": "bytes19"
        }
      ],
      "name": "logBytes19",
      "outputs": [],
      "stateMutability": "view",
      "type": "function"
    },
    {
      "inputs": [
        {
          "internalType": "bytes2",
          "name": "p0",
          "type": "bytes2"
        }
      ],
      "name": "logBytes2",
      "outputs": [],
      "stateMutability": "view",
      "type": "function"
    },
    {
      "inputs": [
        {
          "internalType": "bytes20",
          "name": "p0",
          "type": "bytes20"
        }
      ],
      "name": "logBytes20",
      "outputs": [],
      "stateMutability": "view",
      "type": "function"
    },
    {
      "inputs": [
        {
          "internalType": "bytes21",
          "name": "p0",
          "type": "bytes21"
        }
      ],
      "name": "logBytes21",
      "outputs": [],
      "stateMutability": "view",
      "type": "function"
    },
    {
      "inputs": [
        {
          "internalType": "bytes22",
          "name": "p0",
          "type": "bytes22"
        }
      ],
      "name": "logBytes22",
      "outputs": [],
      "stateMutability": "view",
      "type": "function"
    },
    {
      "inputs": [
        {
          "internalType": "bytes23",
          "name": "p0",
          "type": "bytes23"
        }
      ],
      "name": "logBytes23",
      "outputs": [],
      "stateMutability": "view",
      "type": "function"
    },
    {
      "inputs": [
        {
          "internalType": "bytes24",
          "name": "p0",
          "type": "bytes24"
        }
      ],
      "name": "logBytes24",
      "outputs": [],
      "stateMutability": "view",
      "type": "function"
    },
    {
      "inputs": [
        {
          "internalType": "bytes25",
          "name": "p0",
          "type": "bytes25"
        }
      ],
      "name": "logBytes25",
      "outputs": [],
      "stateMutability": "view",
      "type": "function"
    },
    {
      "inputs": [
        {
          "internalType": "bytes26",
          "name": "p0",
          "type": "bytes26"
        }
      ],
      "name": "logBytes26",
      "outputs": [],
      "stateMutability": "view",
      "type": "function"
    },
    {
      "inputs": [
        {
          "internalType": "bytes27",
          "name": "p0",
          "type": "bytes27"
        }
      ],
      "name": "logBytes27",
      "outputs": [],
      "stateMutability": "view",
      "type": "function"
    },
    {
      "inputs": [
        {
          "internalType": "bytes28",
          "name": "p0",
          "type": "bytes28"
        }
      ],
      "name": "logBytes28",
      "outputs": [],
      "stateMutability": "view",
      "type": "function"
    },
    {
      "inputs": [
        {
          "internalType": "bytes29",
          "name": "p0",
          "type": "bytes29"
        }
      ],
      "name": "logBytes29",
      "outputs": [],
      "stateMutability": "view",
      "type": "function"
    },
    {
      "inputs": [
        {
          "internalType": "bytes3",
          "name": "p0",
          "type": "bytes3"
        }
      ],
      "name": "logBytes3",
      "outputs": [],
      "stateMutability": "view",
      "type": "function"
    },
    {
      "inputs": [
        {
          "internalType": "bytes30",
          "name": "p0",
          "type": "bytes30"
        }
      ],
      "name": "logBytes30",
      "outputs": [],
      "stateMutability": "view",
      "type": "function"
    },
    {
      "inputs": [
        {
          "internalType": "bytes31",
          "name": "p0",
          "type": "bytes31"
        }
      ],
      "name": "logBytes31",
      "outputs": [],
      "stateMutability": "view",
      "type": "function"
    },
    {
      "inputs": [
        {
          "internalType": "bytes32",
          "name": "p0",
          "type": "bytes32"
        }
      ],
      "name": "logBytes32",
      "outputs": [],
      "stateMutability": "view",
      "type": "function"
    },
    {
      "inputs": [
        {
          "internalType": "bytes4",
          "name": "p0",
          "type": "bytes4"
        }
      ],
      "name": "logBytes4",
      "outputs": [],
      "stateMutability": "view",
      "type": "function"
    },
    {
      "inputs": [
        {
          "internalType": "bytes5",
          "name": "p0",
          "type": "bytes5"
        }
      ],
      "name": "logBytes5",
      "outputs": [],
      "stateMutability": "view",
      "type": "function"
    },
    {
      "inputs": [
        {
          "internalType": "bytes6",
          "name": "p0",
          "type": "bytes6"
        }
      ],
      "name": "logBytes6",
      "outputs": [],
      "stateMutability": "view",
      "type": "function"
    },
    {
      "inputs": [
        {
          "internalType": "bytes7",
          "name": "p0",
          "type": "bytes7"
        }
      ],
      "name": "logBytes7",
      "outputs": [],
      "stateMutability": "view",
      "type": "function"
    },
    {
      "inputs": [
        {
          "internalType": "bytes8",
          "name": "p0",
          "type": "bytes8"
        }
      ],
      "name": "logBytes8",
      "outputs": [],
      "stateMutability": "view",
      "type": "function"
    },
    {
      "inputs": [
        {
          "internalType": "bytes9",
          "name": "p0",
          "type": "bytes9"
        }
      ],
      "name": "logBytes9",
      "outputs": [],
      "stateMutability": "view",
      "type": "function"
    },
    {
      "inputs": [
        {
          "internalType": "int256",
          "name": "p0",
          "type": "int256"
        }
      ],
      "name": "logInt",
      "outputs": [],
      "stateMutability": "view",
      "type": "function"
    },
    {
      "inputs": [
        {
          "internalType": "string",
          "name": "p0",
          "type": "string"
        }
      ],
      "name": "logString",
      "outputs": [],
      "stateMutability": "view",
      "type": "function"
    },
    {
      "inputs": [
        {
          "internalType": "uint256",
          "name": "p0",
          "type": "uint256"
        }
      ],
      "name": "logUint",
      "outputs": [],
      "stateMutability": "view",
      "type": "function"
    }
  ],
  "bytecode": {
    "object": "0x608060405234801561001057600080fd5b50615f4080620000216000396000f3fe608060405234801561001057600080fd5b506004361061074c5760003560e01c80637656d6c7116103be578063c3b55635116101ff578063de9a927011610125578063f11699ed116100b8578063fb77226511610087578063fb77226514610fbe578063fba3ad3914610fd1578063fc372f9f14610fe4578063fcec75e014610ff757600080fd5b8063f11699ed14610f85578063f666715a14610f98578063f82c50f114610cd9578063f89a532f14610fab57600080fd5b8063e8defba9116100f4578063e8defba914610f39578063eb830c9214610f4c578063ecb8567e14610f5f578063f08744e814610f7257600080fd5b8063de9a927014610eed578063e0e9ad4f14610f00578063e17bf95614610f13578063e298f47d14610f2657600080fd5b8063cf020fb11161019d578063d86526421161016c578063d865264214610ea1578063daf0d4aa14610eb4578063dbb4c24714610ec7578063dc08b6a714610eda57600080fd5b8063cf020fb114610e55578063d1ed7a3c14610e68578063d276366714610e7b578063d363562814610e8e57600080fd5b8063c91d5ed4116101d9578063c91d5ed414610e09578063c95958d614610e1c578063ca47c4eb14610e2f578063ca7733b114610e4257600080fd5b8063c3b5563514610dd0578063c3fc397014610de3578063c4340ef614610df657600080fd5b80639902e47f116102e4578063aea9963f11610282578063b60e72cc11610251578063b60e72cc14610d97578063b69bcaf614610daa578063ba7ab84e1461092e578063bcfd9be014610dbd57600080fd5b8063aea9963f14610d4b578063b076847f14610d5e578063b0e0f9b514610d71578063b115611f14610d8457600080fd5b80639b6ec042116102be5780639b6ec04214610cff5780639c4f99fb14610d125780639dc2a89714610d25578063a1f2e8aa14610d3857600080fd5b80639902e47f14610cc65780639905b74414610cd95780639b5e943e14610cec57600080fd5b80638309e8a81161035c5780638feac5251161032b5780638feac52514610c7a578063932bbb3814610c8d5780639591b95314610ca057806395ed019514610cb357600080fd5b80638309e8a814610c2e578063850b7ad614610c41578063853c484914610c545780638577502114610c6757600080fd5b80637afac959116103985780637afac95914610be25780637bc0d84814610bf5578063807ab43414610c0857806381fc864814610c1b57600080fd5b80637656d6c714610ba95780637782fa2d14610bbc5780637a18764114610bcf57600080fd5b8063382f9a3411610593578063591a3da2116104b95780636525b5f51161044c5780636f4171c91161041b5780636f4171c914610b5d57806371d04af214610b70578063759f86bb14610b8357806375b605d314610b9657600080fd5b80636525b5f514610b11578063678209a814610b2457806367dd6ff114610b3757806369276c8614610b4a57600080fd5b80635f7b9afb116104885780635f7b9afb14610ad85780635f91b0af146108cf57806363cb41f914610aeb578063643fd0df14610afe57600080fd5b8063591a3da214610a8c5780635970e08914610a9f5780635a9b5ed514610ab25780635c96b33114610ac557600080fd5b80634979b0371161053157806350a138df1161050057806350a138df14610a4b57806351973ec914610a5e5780635583be2e14610a665780635821efa114610a7957600080fd5b80634979b037146109ff5780634b5c427714610a125780634ceda75a14610a255780635070969814610a3857600080fd5b806341304fac1161056d57806341304fac146107b25780634574afab146109c65780634766da72146109d95780634942adc6146109ec57600080fd5b8063382f9a341461098d578063399174d3146109a05780633ceaba65146109b357600080fd5b806320098014116106785780632d21d6f71161061657806334c1d81b116105e557806334c1d81b1461094157806335085f7b14610954578063371033671461096757806337aa7d4c1461097a57600080fd5b80632d21d6f7146108f55780633052c08f14610908578063319af3331461091b57806332458eed1461092e57600080fd5b80632555fa46116106525780632555fa46146108a95780632a110e83146108bc5780632c2ecbc2146108cf5780632ced7cef146108e257600080fd5b806320098014146108705780632071865014610883578063212255cc1461089657600080fd5b80631078f68d116106f057806318c9c746116106bf57806318c9c746146108245780631c7ec448146108375780631c9d7eb31461084a5780631f8d73121461085d57600080fd5b80631078f68d146107d85780631093ee11146107eb57806312f21602146107fe57806317fe61851461081157600080fd5b8063088ef9d21161072c578063088ef9d21461078c5780630977aefc1461079f5780630bb563d6146107b25780630d26b925146107c557600080fd5b80627150be14610751578062f56bc914610766578063018c84c214610779575b600080fd5b61076461075f36600461402d565b61100a565b005b61076461077436600461408b565b61106e565b6107646107873660046140bb565b6110d9565b61076461079a36600461410e565b61114a565b6107646107ad366004614141565b6111ba565b6107646107c036600461416c565b61121d565b6107646107d33660046141a9565b611279565b6107646107e6366004614200565b6112d9565b6107646107f936600461422c565b61134a565b61076461080c366004614283565b6113aa565b61076461081f3660046142af565b611413565b6107646108323660046142db565b611483565b610764610845366004614315565b6114f4565b610764610858366004614363565b611554565b61076461086b36600461438f565b6115b9565b61076461087e3660046143c2565b611624565b6107646108913660046143e7565b61168c565b6107646108a436600461440c565b6116f5565b6107646108b7366004614438565b611755565b6107646108ca366004614456565b6117b5565b6107646108dd366004614480565b611817565b6107646108f036600461449b565b611878565b610764610903366004614519565b6118d8565b610764610916366004614532565b611936565b610764610929366004614560565b61199c565b61076461093c3660046145a5565b6119fa565b61076461094f3660046145c0565b611a54565b6107646109623660046145f6565b611ac2565b61076461097536600461461b565b611b32565b61076461098836600461464e565b611b9a565b61076461099b366004614681565b611bfa565b6107646109ae3660046146a8565b611c59565b6107646109c13660046146d2565b611cba565b6107646109d4366004614707565b611d27565b6107646109e7366004614749565b611da1565b6107646109fa366004614775565b611e09565b610764610a0d3660046147b7565b611e83565b610764610a203660046147e3565b611ee7565b610764610a33366004614847565b611f45565b610764610a46366004614895565b611fa5565b610764610a593660046148c1565b61200f565b610764612081565b610764610a743660046148fb565b6120ce565b610764610a8736600461493d565b612148565b610764610a9a366004614999565b6121a8565b610764610aad3660046149cd565b612214565b610764610ac0366004614a23565b612274565b610764610ad3366004614a48565b6122e3565b610764610ae6366004614a74565b612352565b610764610af9366004614a92565b6123c2565b610764610b0c366004614ab7565b612422565b610764610b1f366004614519565b612480565b610764610b32366004614af4565b6124de565b610764610b45366004614b27565b61254e565b610764610b58366004614b45565b6125ae565b610764610b6b366004614b68565b612616565b610764610b7e366004614baa565b612690565b610764610b91366004614be4565b6126f0565b610764610ba4366004614c1c565b61274e565b610764610bb7366004614c38565b6127b7565b610764610bca366004614c6f565b612826565b610764610bdd366004614cb1565b6128a0565b610764610bf0366004614cd7565b6128fe565b610764610c03366004614d25565b61295e565b610764610c16366004614d43565b6129ce565b610764610c29366004614d70565b612a33565b610764610c3c366004614d94565b612a8f565b610764610c4f366004614db0565b612af7565b610764610c62366004614df7565b612b57565b610764610c75366004614e21565b612bc0565b610764610c88366004614e46565b612c20565b610764610c9b366004614e62565b612c7e565b610764610cae366004614ea9565b612cde565b610764610cc1366004614ee3565b612d3e565b610764610cd4366004614f3f565b612d9e565b610764610ce7366004614519565b612e18565b610764610cfa366004614f81565b612e76565b610764610d0d366004614fc3565b612ef0565b610764610d20366004614fe8565b612f60565b610764610d33366004615006565b612fd0565b610764610d4636600461503f565b613041565b610764610d59366004615080565b6130a1565b610764610d6c3660046150aa565b613103565b610764610d7f3660046150e5565b613163565b610764610d92366004615141565b6131c3565b610764610da5366004615175565b613223565b610764610db83660046151ba565b613281565b610764610dcb3660046151d8565b6132f0565b610764610dde3660046151fd565b613360565b610764610df1366004615242565b6133be565b610764610e04366004615260565b61341e565b610764610e17366004615285565b61347b565b610764610e2a3660046152cc565b6134db565b610764610e3d366004615313565b61353b565b610764610e50366004615361565b61359b565b610764610e633660046153af565b6135fb565b610764610e763660046153e9565b61365b565b610764610e89366004615415565b6136c2565b610764610e9c366004615433565b613733565b610764610eaf36600461545c565b613794565b610764610ec236600461548d565b6137fd565b610764610ed53660046154a9565b613866565b610764610ee83660046154c7565b6138c6565b610764610efb3660046154ff565b613936565b610764610f0e36600461551d565b613996565b610764610f21366004615564565b6139f6565b610764610f343660046155ad565b613a52565b610764610f473660046155f4565b613ab2565b610764610f5a366004615612565b613b1b565b610764610f6d366004615630565b613b8c565b610764610f8036600461565f565b613bf3565b610764610f9336600461567d565b613c53565b610764610fa636600461569b565b613cc4565b610764610fb93660046156bd565b613d24565b610764610fcc3660046156ef565b613d8e565b610764610fdf36600461570d565b613dee565b610764610ff236600461574f565b613e68565b610764611005366004615777565b613ec8565b6110698383836040516024016110229392919061580b565b60408051601f198184030181529190526020810180516001600160e01b03167e7150be00000000000000000000000000000000000000000000000000000000179052613f24565b505050565b6040516cffffffffffffffffffffffffff19821660248201526110d69060440160408051601f198184030181529190526020810180516001600160e01b03167f5e6b5a3300000000000000000000000000000000000000000000000000000000179052613f24565b50565b6040516001600160a01b0380851660248301528084166044830152821660648201526110699060840160408051601f198184030181529190526020810180516001600160e01b03167f018c84c200000000000000000000000000000000000000000000000000000000179052613f24565b6040518315156024820152604481018390526001600160a01b03821660648201526110699060840160408051601f198184030181529190526020810180516001600160e01b03167fc4d2350700000000000000000000000000000000000000000000000000000000179052613f24565b60405167ffffffffffffffff19821660248201526110d69060440160408051601f198184030181529190526020810180516001600160e01b03167ff1b35b3400000000000000000000000000000000000000000000000000000000179052613f24565b6110d6816040516024016112319190615840565b60408051601f198184030181529190526020810180516001600160e01b03167f41304fac00000000000000000000000000000000000000000000000000000000179052613f24565b61106983838360405160240161129193929190615853565b60408051601f198184030181529190526020810180516001600160e01b03167f07c8121700000000000000000000000000000000000000000000000000000000179052613f24565b604051831515602482015282151560448201526001600160a01b03821660648201526110699060840160408051601f198184030181529190526020810180516001600160e01b03167f1078f68d00000000000000000000000000000000000000000000000000000000179052613f24565b61106983838360405160240161136293929190615881565b60408051601f198184030181529190526020810180516001600160e01b03167fc0382aac00000000000000000000000000000000000000000000000000000000179052613f24565b60405183151560248201528215156044820152606481018290526110699060840160408051601f198184030181529190526020810180516001600160e01b03167fb01365bb00000000000000000000000000000000000000000000000000000000179052613f24565b6040516001600160a01b03808516602483015283166044820152606481018290526110699060840160408051601f198184030181529190526020810180516001600160e01b03167f6c366d7200000000000000000000000000000000000000000000000000000000179052613f24565b60405183151560248201526001600160a01b038316604482015281151560648201526110699060840160408051601f198184030181529190526020810180516001600160e01b03167f18c9c74600000000000000000000000000000000000000000000000000000000179052613f24565b61106983838360405160240161150c939291906158ac565b60408051601f198184030181529190526020810180516001600160e01b03167fe3849f7900000000000000000000000000000000000000000000000000000000179052613f24565b6040516024810183905281151560448201526115b59060640160408051601f198184030181529190526020810180516001600160e01b03167f1e6dd4ec00000000000000000000000000000000000000000000000000000000179052613f24565b5050565b6040516fffffffffffffffffffffffffffffffff19821660248201526110d69060440160408051601f198184030181529190526020810180516001600160e01b03167f665c610400000000000000000000000000000000000000000000000000000000179052613f24565b604051602481018490528215156044820152606481018290526110699060840160408051601f198184030181529190526020810180516001600160e01b03167f5a4d992200000000000000000000000000000000000000000000000000000000179052613f24565b60405160248101849052821515604482015281151560648201526110699060840160408051601f198184030181529190526020810180516001600160e01b03167fd5ceace000000000000000000000000000000000000000000000000000000000179052613f24565b61106983838360405160240161170d939291906158de565b60408051601f198184030181529190526020810180516001600160e01b03167f212255cc00000000000000000000000000000000000000000000000000000000179052613f24565b61106983838360405160240161176d93929190615908565b60408051601f198184030181529190526020810180516001600160e01b03167f2555fa4600000000000000000000000000000000000000000000000000000000179052613f24565b604051821515602482015281151560448201526115b59060640160408051601f198184030181529190526020810180516001600160e01b03167f2a110e8300000000000000000000000000000000000000000000000000000000179052613f24565b6040516001600160a01b03821660248201526110d69060440160408051601f198184030181529190526020810180516001600160e01b03167f2c2ecbc200000000000000000000000000000000000000000000000000000000179052613f24565b6110698383836040516024016118909392919061592b565b60408051601f198184030181529190526020810180516001600160e01b03167f2ced7cef00000000000000000000000000000000000000000000000000000000179052613f24565b6110d6816040516024016118ee91815260200190565b60408051601f198184030181529190526020810180516001600160e01b03167f27b7cf8500000000000000000000000000000000000000000000000000000000179052613f24565b6040516affffffffffffffffffffff19821660248201526110d69060440160408051601f198184030181529190526020810180516001600160e01b03167fe9da356000000000000000000000000000000000000000000000000000000000179052613f24565b6115b582826040516024016119b292919061596e565b60408051601f198184030181529190526020810180516001600160e01b03167f319af33300000000000000000000000000000000000000000000000000000000179052613f24565b60405181151560248201526110d69060440160408051601f198184030181529190526020810180516001600160e01b03167f32458eed00000000000000000000000000000000000000000000000000000000179052613f24565b60405172ffffffffffffffffffffffffffffffffffffff19821660248201526110d69060440160408051601f198184030181529190526020810180516001600160e01b03167f94529e3400000000000000000000000000000000000000000000000000000000179052613f24565b6040516024810184905282151560448201526001600160a01b03821660648201526110699060840160408051601f198184030181529190526020810180516001600160e01b03167f424effbf00000000000000000000000000000000000000000000000000000000179052613f24565b604051831515602482015260448101839052606481018290526110699060840160408051601f198184030181529190526020810180516001600160e01b03167f3b5c03e000000000000000000000000000000000000000000000000000000000179052613f24565b611069838383604051602401611bb293929190615999565b60408051601f198184030181529190526020810180516001600160e01b03167f5b6de83f00000000000000000000000000000000000000000000000000000000179052613f24565b60405163ffffffff19821660248201526110d69060440160408051601f198184030181529190526020810180516001600160e01b03167fc82aeaee00000000000000000000000000000000000000000000000000000000179052613f24565b6040518215156024820152604481018290526115b59060640160408051601f198184030181529190526020810180516001600160e01b03167f364b6a9200000000000000000000000000000000000000000000000000000000179052613f24565b60405171ffffffffffffffffffffffffffffffffffff19821660248201526110d69060440160408051601f198184030181529190526020810180516001600160e01b03167f9266f07f00000000000000000000000000000000000000000000000000000000179052613f24565b6040517fffffffffffffff00000000000000000000000000000000000000000000000000821660248201526110d69060440160408051601f198184030181529190526020810180516001600160e01b03167f4ed57e2800000000000000000000000000000000000000000000000000000000179052613f24565b604051602481018490526044810183905281151560648201526110699060840160408051601f198184030181529190526020810180516001600160e01b03167f67570ff700000000000000000000000000000000000000000000000000000000179052613f24565b6040517fffffffffffff0000000000000000000000000000000000000000000000000000821660248201526110d69060440160408051601f198184030181529190526020810180516001600160e01b03167fae84a59100000000000000000000000000000000000000000000000000000000179052613f24565b60405168ffffffffffffffffff19821660248201526110d69060440160408051601f198184030181529190526020810180516001600160e01b03167faba1cf0d00000000000000000000000000000000000000000000000000000000179052613f24565b6115b58282604051602401611efd9291906159b2565b60408051601f198184030181529190526020810180516001600160e01b03167f4b5c427700000000000000000000000000000000000000000000000000000000179052613f24565b611069838383604051602401611f5d939291906159d7565b60408051601f198184030181529190526020810180516001600160e01b03167f46a7d0ce00000000000000000000000000000000000000000000000000000000179052613f24565b6040518315156024820152821515604482015281151560648201526110699060840160408051601f198184030181529190526020810180516001600160e01b03167f5070969800000000000000000000000000000000000000000000000000000000179052613f24565b60405176ffffffffffffffffffffffffffffffffffffffffffffff19821660248201526110d69060440160408051601f198184030181529190526020810180516001600160e01b03167f90bd8cd000000000000000000000000000000000000000000000000000000000179052613f24565b6040805160048152602481019091526020810180516001600160e01b03167f51973ec9000000000000000000000000000000000000000000000000000000001790526120cc90613f24565b565b6040517fffffffffff000000000000000000000000000000000000000000000000000000821660248201526110d69060440160408051601f198184030181529190526020810180516001600160e01b03167fa684808d00000000000000000000000000000000000000000000000000000000179052613f24565b61106983838360405160240161216093929190615a02565b60408051601f198184030181529190526020810180516001600160e01b03167ff362ca5900000000000000000000000000000000000000000000000000000000179052613f24565b60405170ffffffffffffffffffffffffffffffffff19821660248201526110d69060440160408051601f198184030181529190526020810180516001600160e01b03167fda9574e000000000000000000000000000000000000000000000000000000000179052613f24565b61106983838360405160240161222c93929190615a38565b60408051601f198184030181529190526020810180516001600160e01b03167fa3f5c73900000000000000000000000000000000000000000000000000000000179052613f24565b604051602481018490526001600160a01b0383166044820152606481018290526110699060840160408051601f198184030181529190526020810180516001600160e01b03167f884343aa00000000000000000000000000000000000000000000000000000000179052613f24565b60405160248101849052604481018390526001600160a01b03821660648201526110699060840160408051601f198184030181529190526020810180516001600160e01b03167fbe33491b00000000000000000000000000000000000000000000000000000000179052613f24565b60405183151560248201526001600160a01b0383166044820152606481018290526110699060840160408051601f198184030181529190526020810180516001600160e01b03167feb704baf00000000000000000000000000000000000000000000000000000000179052613f24565b6110698383836040516024016123da93929190615a63565b60408051601f198184030181529190526020810180516001600160e01b03167fce83047b00000000000000000000000000000000000000000000000000000000179052613f24565b6115b58282604051602401612438929190615a8b565b60408051601f198184030181529190526020810180516001600160e01b03167f0fa3f34500000000000000000000000000000000000000000000000000000000179052613f24565b6110d68160405160240161249691815260200190565b60408051601f198184030181529190526020810180516001600160e01b03167f4e0c1d1d00000000000000000000000000000000000000000000000000000000179052613f24565b6040516001600160a01b03841660248201526044810183905281151560648201526110699060840160408051601f198184030181529190526020810180516001600160e01b03167fe54ae14400000000000000000000000000000000000000000000000000000000179052613f24565b61106983838360405160240161256693929190615aa4565b60408051601f198184030181529190526020810180516001600160e01b03167f1cdaf28a00000000000000000000000000000000000000000000000000000000179052613f24565b604051602481018390526001600160a01b03821660448201526115b59060640160408051601f198184030181529190526020810180516001600160e01b03167f58eb860c00000000000000000000000000000000000000000000000000000000179052613f24565b6040517fff00000000000000000000000000000000000000000000000000000000000000821660248201526110d69060440160408051601f198184030181529190526020810180516001600160e01b03167f6e18a12800000000000000000000000000000000000000000000000000000000179052613f24565b6110698383836040516024016126a893929190615ac6565b60408051601f198184030181529190526020810180516001600160e01b03167f7d690ee600000000000000000000000000000000000000000000000000000000179052613f24565b6115b58282604051602401612706929190615ae5565b60408051601f198184030181529190526020810180516001600160e01b03167f759f86bb00000000000000000000000000000000000000000000000000000000179052613f24565b6040516001600160a01b038316602482015281151560448201526115b59060640160408051601f198184030181529190526020810180516001600160e01b03167f75b605d300000000000000000000000000000000000000000000000000000000179052613f24565b60405173ffffffffffffffffffffffffffffffffffffffff19821660248201526110d69060440160408051601f198184030181529190526020810180516001600160e01b03167f86a06abd00000000000000000000000000000000000000000000000000000000179052613f24565b6040517fffffff0000000000000000000000000000000000000000000000000000000000821660248201526110d69060440160408051601f198184030181529190526020810180516001600160e01b03167f2d83492600000000000000000000000000000000000000000000000000000000179052613f24565b60405162ffffff19821660248201526110d69060440160408051601f198184030181529190526020810180516001600160e01b03167f4b69c3d500000000000000000000000000000000000000000000000000000000179052613f24565b61106983838360405160240161291693929190615b07565b60408051601f198184030181529190526020810180516001600160e01b03167f1f90f24a00000000000000000000000000000000000000000000000000000000179052613f24565b6040516001600160a01b03808516602483015260448201849052821660648201526110699060840160408051601f198184030181529190526020810180516001600160e01b03167f97eca39400000000000000000000000000000000000000000000000000000000179052613f24565b60405169ffffffffffffffffffff19821660248201526110d69060440160408051601f198184030181529190526020810180516001600160e01b03167fd5fae89c00000000000000000000000000000000000000000000000000000000179052613f24565b60405160ff19821660248201526110d69060440160408051601f198184030181529190526020810180516001600160e01b03167fc2854d9200000000000000000000000000000000000000000000000000000000179052613f24565b6040516001600160a01b0383166024820152604481018290526115b59060640160408051601f198184030181529190526020810180516001600160e01b03167f2243cfa300000000000000000000000000000000000000000000000000000000179052613f24565b611069838383604051602401612b0f93929190615b39565b60408051601f198184030181529190526020810180516001600160e01b03167f850b7ad600000000000000000000000000000000000000000000000000000000179052613f24565b60405182151560248201526001600160a01b03821660448201526115b59060640160408051601f198184030181529190526020810180516001600160e01b03167f853c484900000000000000000000000000000000000000000000000000000000179052613f24565b611069838383604051602401612bd893929190615b63565b60408051601f198184030181529190526020810180516001600160e01b03167f8b0e14fe00000000000000000000000000000000000000000000000000000000179052613f24565b6115b58282604051602401612c36929190615b84565b60408051601f198184030181529190526020810180516001600160e01b03167f8feac52500000000000000000000000000000000000000000000000000000000179052613f24565b611069838383604051602401612c9693929190615b9f565b60408051601f198184030181529190526020810180516001600160e01b03167f932bbb3800000000000000000000000000000000000000000000000000000000179052613f24565b611069838383604051602401612cf693929190615bd2565b60408051601f198184030181529190526020810180516001600160e01b03167f9591b95300000000000000000000000000000000000000000000000000000000179052613f24565b611069838383604051602401612d5693929190615bed565b60408051601f198184030181529190526020810180516001600160e01b03167f95ed019500000000000000000000000000000000000000000000000000000000179052613f24565b6040517fffffffffffffffff000000000000000000000000000000000000000000000000821660248201526110d69060440160408051601f198184030181529190526020810180516001600160e01b03167f4f84252e00000000000000000000000000000000000000000000000000000000179052613f24565b6110d681604051602401612e2e91815260200190565b60408051601f198184030181529190526020810180516001600160e01b03167ff5b1bba900000000000000000000000000000000000000000000000000000000179052613f24565b6040517fffff000000000000000000000000000000000000000000000000000000000000821660248201526110d69060440160408051601f198184030181529190526020810180516001600160e01b03167fe9b6229600000000000000000000000000000000000000000000000000000000179052613f24565b604051602481018490526001600160a01b038316604482015281151560648201526110699060840160408051601f198184030181529190526020810180516001600160e01b03167f7ad0128e00000000000000000000000000000000000000000000000000000000179052613f24565b6040516001600160a01b03841660248201528215156044820152606481018290526110699060840160408051601f198184030181529190526020810180516001600160e01b03167f2c468d1500000000000000000000000000000000000000000000000000000000179052613f24565b60405175ffffffffffffffffffffffffffffffffffffffffffff19821660248201526110d69060440160408051601f198184030181529190526020810180516001600160e01b03167f013d178b00000000000000000000000000000000000000000000000000000000179052613f24565b61106983838360405160240161305993929190615c2c565b60408051601f198184030181529190526020810180516001600160e01b03167fbaf9684900000000000000000000000000000000000000000000000000000000179052613f24565b60405166ffffffffffffff19821660248201526110d69060440160408051601f198184030181529190526020810180516001600160e01b03167f0b84bc5800000000000000000000000000000000000000000000000000000000179052613f24565b61106983838360405160240161311b93929190615c54565b60408051601f198184030181529190526020810180516001600160e01b03167fb076847f00000000000000000000000000000000000000000000000000000000179052613f24565b61106983838360405160240161317b93929190615c81565b60408051601f198184030181529190526020810180516001600160e01b03167fb0e0f9b500000000000000000000000000000000000000000000000000000000179052613f24565b6110698383836040516024016131db93929190615cb9565b60408051601f198184030181529190526020810180516001600160e01b03167f3f57c29500000000000000000000000000000000000000000000000000000000179052613f24565b6115b58282604051602401613239929190615cd2565b60408051601f198184030181529190526020810180516001600160e01b03167f9710a9d000000000000000000000000000000000000000000000000000000000179052613f24565b6040516001600160a01b038416602482015260448101839052606481018290526110699060840160408051601f198184030181529190526020810180516001600160e01b03167f8786135e00000000000000000000000000000000000000000000000000000000179052613f24565b604051602481018490526001600160a01b038084166044830152821660648201526110699060840160408051601f198184030181529190526020810180516001600160e01b03167f7d77a61b00000000000000000000000000000000000000000000000000000000179052613f24565b6115b58282604051602401613376929190615cf4565b60408051601f198184030181529190526020810180516001600160e01b03167fc3b5563500000000000000000000000000000000000000000000000000000000179052613f24565b6110698383836040516024016133d693929190615d18565b60408051601f198184030181529190526020810180516001600160e01b03167fc8397eb000000000000000000000000000000000000000000000000000000000179052613f24565b60405161ffff19821660248201526110d69060440160408051601f198184030181529190526020810180516001600160e01b03167fee12c4ed00000000000000000000000000000000000000000000000000000000179052613f24565b61106983838360405160240161349393929190615d39565b60408051601f198184030181529190526020810180516001600160e01b03167fc91d5ed400000000000000000000000000000000000000000000000000000000179052613f24565b6110698383836040516024016134f393929190615d6c565b60408051601f198184030181529190526020810180516001600160e01b03167f291bb9d000000000000000000000000000000000000000000000000000000000179052613f24565b61106983838360405160240161355393929190615d91565b60408051601f198184030181529190526020810180516001600160e01b03167f969cdd0300000000000000000000000000000000000000000000000000000000179052613f24565b6110698383836040516024016135b393929190615db6565b60408051601f198184030181529190526020810180516001600160e01b03167ff102ee0500000000000000000000000000000000000000000000000000000000179052613f24565b61106983838360405160240161361393929190615de0565b60408051601f198184030181529190526020810180516001600160e01b03167fcf020fb100000000000000000000000000000000000000000000000000000000179052613f24565b6040516024810184905260448101839052606481018290526110699060840160408051601f198184030181529190526020810180516001600160e01b03167fe7820a7400000000000000000000000000000000000000000000000000000000179052613f24565b60405183151560248201526001600160a01b038084166044830152821660648201526110699060840160408051601f198184030181529190526020810180516001600160e01b03167fd276366700000000000000000000000000000000000000000000000000000000179052613f24565b60405165ffffffffffff19821660248201526110d69060440160408051601f198184030181529190526020810180516001600160e01b03167ff8b149f100000000000000000000000000000000000000000000000000000000179052613f24565b6040516dffffffffffffffffffffffffffff19821660248201526110d69060440160408051601f198184030181529190526020810180516001600160e01b03167fc4d23d9a00000000000000000000000000000000000000000000000000000000179052613f24565b6040516001600160a01b038084166024830152821660448201526115b59060640160408051601f198184030181529190526020810180516001600160e01b03167fdaf0d4aa00000000000000000000000000000000000000000000000000000000179052613f24565b61106983838360405160240161387e93929190615e02565b60408051601f198184030181529190526020810180516001600160e01b03167fdbb4c24700000000000000000000000000000000000000000000000000000000179052613f24565b60405174ffffffffffffffffffffffffffffffffffffffffff19821660248201526110d69060440160408051601f198184030181529190526020810180516001600160e01b03167f04004a2e00000000000000000000000000000000000000000000000000000000179052613f24565b61106983838360405160240161394e93929190615e1d565b60408051601f198184030181529190526020810180516001600160e01b03167fde9a927000000000000000000000000000000000000000000000000000000000179052613f24565b6110698383836040516024016139ae93929190615e47565b60408051601f198184030181529190526020810180516001600160e01b03167fe0e9ad4f00000000000000000000000000000000000000000000000000000000179052613f24565b6110d681604051602401613a0a9190615840565b60408051601f198184030181529190526020810180516001600160e01b03167f0be77f5600000000000000000000000000000000000000000000000000000000179052613f24565b611069838383604051602401613a6a93929190615e7b565b60408051601f198184030181529190526020810180516001600160e01b03167fe298f47d00000000000000000000000000000000000000000000000000000000179052613f24565b60405183151560248201526044810183905281151560648201526110699060840160408051601f198184030181529190526020810180516001600160e01b03167f1badc9eb00000000000000000000000000000000000000000000000000000000179052613f24565b6040516001600160a01b0384166024820152821515604482015281151560648201526110699060840160408051601f198184030181529190526020810180516001600160e01b03167feb830c9200000000000000000000000000000000000000000000000000000000179052613f24565b6040516bffffffffffffffffffffffff19821660248201526110d69060440160408051601f198184030181529190526020810180516001600160e01b03167f5188e3e900000000000000000000000000000000000000000000000000000000179052613f24565b611069838383604051602401613c0b93929190615ea8565b60408051601f198184030181529190526020810180516001600160e01b03167ff08744e800000000000000000000000000000000000000000000000000000000179052613f24565b6040516001600160a01b0380851660248301528315156044830152821660648201526110699060840160408051601f198184030181529190526020810180516001600160e01b03167ff11699ed00000000000000000000000000000000000000000000000000000000179052613f24565b60405160248101839052604481018290526115b59060640160408051601f198184030181529190526020810180516001600160e01b03167f6c0f698000000000000000000000000000000000000000000000000000000000179052613f24565b6040516effffffffffffffffffffffffffffff19821660248201526110d69060440160408051601f198184030181529190526020810180516001600160e01b03167f339f673a00000000000000000000000000000000000000000000000000000000179052613f24565b611069838383604051602401613da693929190615ede565b60408051601f198184030181529190526020810180516001600160e01b03167ffb77226500000000000000000000000000000000000000000000000000000000179052613f24565b6040517fffffffff00000000000000000000000000000000000000000000000000000000821660248201526110d69060440160408051601f198184030181529190526020810180516001600160e01b03167fe05f48d100000000000000000000000000000000000000000000000000000000179052613f24565b60405164ffffffffff19821660248201526110d69060440160408051601f198184030181529190526020810180516001600160e01b03167f3a3757dd00000000000000000000000000000000000000000000000000000000179052613f24565b611069838383604051602401613ee093929190615f00565b60408051601f198184030181529190526020810180516001600160e01b03167ffcec75e0000000000000000000000000000000000000000000000000000000001790525b80516a636f6e736f6c652e6c6f67602083016000808483855afa5050505050565b80356001600160a01b0381168114613f5c57600080fd5b919050565b7f4e487b7100000000000000000000000000000000000000000000000000000000600052604160045260246000fd5b600067ffffffffffffffff80841115613fab57613fab613f61565b604051601f8501601f19908116603f01168101908282118183101715613fd357613fd3613f61565b81604052809350858152868686011115613fec57600080fd5b858560208301376000602087830101525050509392505050565b600082601f83011261401757600080fd5b61402683833560208501613f90565b9392505050565b60008060006060848603121561404257600080fd5b61404b84613f45565b925061405960208501613f45565b9150604084013567ffffffffffffffff81111561407557600080fd5b61408186828701614006565b9150509250925092565b60006020828403121561409d57600080fd5b81356cffffffffffffffffffffffffff198116811461402657600080fd5b6000806000606084860312156140d057600080fd5b6140d984613f45565b92506140e760208501613f45565b91506140f560408501613f45565b90509250925092565b80358015158114613f5c57600080fd5b60008060006060848603121561412357600080fd5b61412c846140fe565b9250602084013591506140f560408501613f45565b60006020828403121561415357600080fd5b813567ffffffffffffffff198116811461402657600080fd5b60006020828403121561417e57600080fd5b813567ffffffffffffffff81111561419557600080fd5b6141a184828501614006565b949350505050565b6000806000606084860312156141be57600080fd5b833567ffffffffffffffff8111156141d557600080fd5b6141e186828701614006565b9350506141f060208501613f45565b9150604084013590509250925092565b60008060006060848603121561421557600080fd5b61421e846140fe565b92506140e7602085016140fe565b60008060006060848603121561424157600080fd5b61424a846140fe565b9250602084013567ffffffffffffffff81111561426657600080fd5b61427286828701614006565b925050604084013590509250925092565b60008060006060848603121561429857600080fd5b6142a1846140fe565b92506141f0602085016140fe565b6000806000606084860312156142c457600080fd5b6142cd84613f45565b92506141f060208501613f45565b6000806000606084860312156142f057600080fd5b6142f9846140fe565b925061430760208501613f45565b91506140f5604085016140fe565b60008060006060848603121561432a57600080fd5b833567ffffffffffffffff81111561434157600080fd5b61434d86828701614006565b935050602084013591506140f560408501613f45565b6000806040838503121561437657600080fd5b82359150614386602084016140fe565b90509250929050565b6000602082840312156143a157600080fd5b81356fffffffffffffffffffffffffffffffff198116811461402657600080fd5b6000806000606084860312156143d757600080fd5b833592506141f0602085016140fe565b6000806000606084860312156143fc57600080fd5b83359250614307602085016140fe565b60008060006060848603121561442157600080fd5b61442a84613f45565b9250614059602085016140fe565b60008060006060848603121561444d57600080fd5b61442a846140fe565b6000806040838503121561446957600080fd5b614472836140fe565b9150614386602084016140fe565b60006020828403121561449257600080fd5b61402682613f45565b6000806000606084860312156144b057600080fd5b833567ffffffffffffffff808211156144c857600080fd5b6144d487838801614006565b945060208601359150808211156144ea57600080fd5b6144f687838801614006565b9350604086013591508082111561450c57600080fd5b5061408186828701614006565b60006020828403121561452b57600080fd5b5035919050565b60006020828403121561454457600080fd5b81356affffffffffffffffffffff198116811461402657600080fd5b6000806040838503121561457357600080fd5b823567ffffffffffffffff81111561458a57600080fd5b61459685828601614006565b92505061438660208401613f45565b6000602082840312156145b757600080fd5b614026826140fe565b6000602082840312156145d257600080fd5b813572ffffffffffffffffffffffffffffffffffffff198116811461402657600080fd5b60008060006060848603121561460b57600080fd5b833592506140e7602085016140fe565b60008060006060848603121561463057600080fd5b614639846140fe565b95602085013595506040909401359392505050565b60008060006060848603121561466357600080fd5b83359250602084013567ffffffffffffffff81111561426657600080fd5b60006020828403121561469357600080fd5b813563ffffffff198116811461402657600080fd5b600080604083850312156146bb57600080fd5b6146c4836140fe565b946020939093013593505050565b6000602082840312156146e457600080fd5b813571ffffffffffffffffffffffffffffffffffff198116811461402657600080fd5b60006020828403121561471957600080fd5b81357fffffffffffffff000000000000000000000000000000000000000000000000008116811461402657600080fd5b60008060006060848603121561475e57600080fd5b83359250602084013591506140f5604085016140fe565b60006020828403121561478757600080fd5b81357fffffffffffff00000000000000000000000000000000000000000000000000008116811461402657600080fd5b6000602082840312156147c957600080fd5b813568ffffffffffffffffff198116811461402657600080fd5b600080604083850312156147f657600080fd5b823567ffffffffffffffff8082111561480e57600080fd5b61481a86838701614006565b9350602085013591508082111561483057600080fd5b5061483d85828601614006565b9150509250929050565b60008060006060848603121561485c57600080fd5b83359250602084013567ffffffffffffffff81111561487a57600080fd5b61488686828701614006565b9250506140f5604085016140fe565b6000806000606084860312156148aa57600080fd5b6148b3846140fe565b9250614307602085016140fe565b6000602082840312156148d357600080fd5b813576ffffffffffffffffffffffffffffffffffffffffffffff198116811461402657600080fd5b60006020828403121561490d57600080fd5b81357fffffffffff0000000000000000000000000000000000000000000000000000008116811461402657600080fd5b60008060006060848603121561495257600080fd5b833567ffffffffffffffff8082111561496a57600080fd5b61497687838801614006565b9450602086013591508082111561498c57600080fd5b5061427286828701614006565b6000602082840312156149ab57600080fd5b813570ffffffffffffffffffffffffffffffffff198116811461402657600080fd5b6000806000606084860312156149e257600080fd5b833567ffffffffffffffff808211156149fa57600080fd5b614a0687838801614006565b945060208601359350604086013591508082111561450c57600080fd5b600080600060608486031215614a3857600080fd5b833592506141f060208501613f45565b600080600060608486031215614a5d57600080fd5b83359250602084013591506140f560408501613f45565b600080600060608486031215614a8957600080fd5b6142cd846140fe565b600080600060608486031215614aa757600080fd5b8335925061405960208501613f45565b60008060408385031215614aca57600080fd5b82359150602083013567ffffffffffffffff811115614ae857600080fd5b61483d85828601614006565b600080600060608486031215614b0957600080fd5b614b1284613f45565b9250602084013591506140f5604085016140fe565b600080600060608486031215614b3c57600080fd5b61424a84613f45565b60008060408385031215614b5857600080fd5b8235915061438660208401613f45565b600060208284031215614b7a57600080fd5b81357fff000000000000000000000000000000000000000000000000000000000000008116811461402657600080fd5b600080600060608486031215614bbf57600080fd5b8335925060208401359150604084013567ffffffffffffffff81111561407557600080fd5b60008060408385031215614bf757600080fd5b614c0083613f45565b9150602083013567ffffffffffffffff811115614ae857600080fd5b60008060408385031215614c2f57600080fd5b61447283613f45565b600060208284031215614c4a57600080fd5b813573ffffffffffffffffffffffffffffffffffffffff198116811461402657600080fd5b600060208284031215614c8157600080fd5b81357fffffff00000000000000000000000000000000000000000000000000000000008116811461402657600080fd5b600060208284031215614cc357600080fd5b813562ffffff198116811461402657600080fd5b600080600060608486031215614cec57600080fd5b83359250602084013567ffffffffffffffff811115614d0a57600080fd5b614d1686828701614006565b9250506140f560408501613f45565b600080600060608486031215614d3a57600080fd5b61412c84613f45565b600060208284031215614d5557600080fd5b813569ffffffffffffffffffff198116811461402657600080fd5b600060208284031215614d8257600080fd5b813560ff198116811461402657600080fd5b60008060408385031215614da757600080fd5b6146c483613f45565b600080600060608486031215614dc557600080fd5b833567ffffffffffffffff811115614ddc57600080fd5b614de886828701614006565b935050614307602085016140fe565b60008060408385031215614e0a57600080fd5b614e13836140fe565b915061438660208401613f45565b600080600060608486031215614e3657600080fd5b83359250614059602085016140fe565b60008060408385031215614e5957600080fd5b614c00836140fe565b600080600060608486031215614e7757600080fd5b833567ffffffffffffffff811115614e8e57600080fd5b614e9a86828701614006565b9350506140e7602085016140fe565b600080600060608486031215614ebe57600080fd5b614ec7846140fe565b9250602084013567ffffffffffffffff811115614d0a57600080fd5b600080600060608486031215614ef857600080fd5b833567ffffffffffffffff80821115614f1057600080fd5b614f1c87838801614006565b94506020860135915080821115614f3257600080fd5b50614d1686828701614006565b600060208284031215614f5157600080fd5b81357fffffffffffffffff0000000000000000000000000000000000000000000000008116811461402657600080fd5b600060208284031215614f9357600080fd5b81357fffff0000000000000000000000000000000000000000000000000000000000008116811461402657600080fd5b600080600060608486031215614fd857600080fd5b8335925061430760208501613f45565b600080600060608486031215614ffd57600080fd5b6142a184613f45565b60006020828403121561501857600080fd5b813575ffffffffffffffffffffffffffffffffffffffffffff198116811461402657600080fd5b60008060006060848603121561505457600080fd5b61505d84613f45565b925060208401359150604084013567ffffffffffffffff81111561407557600080fd5b60006020828403121561509257600080fd5b813566ffffffffffffff198116811461402657600080fd5b6000806000606084860312156150bf57600080fd5b6150c8846140fe565b9250602084013567ffffffffffffffff808211156144ea57600080fd5b6000806000606084860312156150fa57600080fd5b833567ffffffffffffffff8082111561511257600080fd5b61511e87838801614006565b9450602086013591508082111561513457600080fd5b5061488686828701614006565b60008060006060848603121561515657600080fd5b83359250602084013567ffffffffffffffff808211156144ea57600080fd5b6000806040838503121561518857600080fd5b823567ffffffffffffffff81111561519f57600080fd5b6151ab85828601614006565b95602094909401359450505050565b6000806000606084860312156151cf57600080fd5b61463984613f45565b6000806000606084860312156151ed57600080fd5b833592506140e760208501613f45565b6000806040838503121561521057600080fd5b823567ffffffffffffffff81111561522757600080fd5b61523385828601614006565b925050614386602084016140fe565b60008060006060848603121561525757600080fd5b61505d846140fe565b60006020828403121561527257600080fd5b813561ffff198116811461402657600080fd5b60008060006060848603121561529a57600080fd5b833567ffffffffffffffff8111156152b157600080fd5b6152bd86828701614006565b93505061430760208501613f45565b6000806000606084860312156152e157600080fd5b833567ffffffffffffffff8111156152f857600080fd5b61530486828701614006565b9350506141f0602085016140fe565b60008060006060848603121561532857600080fd5b833567ffffffffffffffff81111561533f57600080fd5b61534b86828701614006565b9660208601359650604090950135949350505050565b60008060006060848603121561537657600080fd5b833567ffffffffffffffff81111561538d57600080fd5b61539986828701614006565b935050602084013591506140f5604085016140fe565b6000806000606084860312156153c457600080fd5b6153cd84613f45565b9250602084013567ffffffffffffffff81111561487a57600080fd5b6000806000606084860312156153fe57600080fd5b505081359360208301359350604090920135919050565b60008060006060848603121561542a57600080fd5b6140d9846140fe565b60006020828403121561544557600080fd5b813565ffffffffffff198116811461402657600080fd5b60006020828403121561546e57600080fd5b81356dffffffffffffffffffffffffffff198116811461402657600080fd5b600080604083850312156154a057600080fd5b614e1383613f45565b6000806000606084860312156154be57600080fd5b6153cd846140fe565b6000602082840312156154d957600080fd5b813574ffffffffffffffffffffffffffffffffffffffffff198116811461402657600080fd5b60008060006060848603121561551457600080fd5b61404b846140fe565b60008060006060848603121561553257600080fd5b833567ffffffffffffffff8082111561554a57600080fd5b61555687838801614006565b94506144f660208701613f45565b60006020828403121561557657600080fd5b813567ffffffffffffffff81111561558d57600080fd5b8201601f8101841361559e57600080fd5b6141a184823560208401613f90565b6000806000606084860312156155c257600080fd5b833567ffffffffffffffff808211156155da57600080fd5b6155e687838801614006565b94506144f6602087016140fe565b60008060006060848603121561560957600080fd5b614b12846140fe565b60008060006060848603121561562757600080fd5b6148b384613f45565b60006020828403121561564257600080fd5b81356bffffffffffffffffffffffff198116811461402657600080fd5b60008060006060848603121561567457600080fd5b614ec784613f45565b60008060006060848603121561569257600080fd5b61421e84613f45565b600080604083850312156156ae57600080fd5b50508035926020909101359150565b6000602082840312156156cf57600080fd5b81356effffffffffffffffffffffffffffff198116811461402657600080fd5b60008060006060848603121561570457600080fd5b6150c884613f45565b60006020828403121561571f57600080fd5b81357fffffffff000000000000000000000000000000000000000000000000000000008116811461402657600080fd5b60006020828403121561576157600080fd5b813564ffffffffff198116811461402657600080fd5b60008060006060848603121561578c57600080fd5b833567ffffffffffffffff8111156157a357600080fd5b6157af86828701614006565b9350506140e760208501613f45565b6000815180845260005b818110156157e4576020818501810151868301820152016157c8565b818111156157f6576000602083870101525b50601f01601f19169290920160200192915050565b60006001600160a01b0380861683528085166020840152506060604083015261583760608301846157be565b95945050505050565b60208152600061402660208301846157be565b60608152600061586660608301866157be565b6001600160a01b039490941660208301525060400152919050565b831515815260606020820152600061589c60608301856157be565b9050826040830152949350505050565b6060815260006158bf60608301866157be565b90508360208301526001600160a01b0383166040830152949350505050565b6001600160a01b0384168152821515602082015260606040820152600061583760608301846157be565b8315158152821515602082015260606040820152600061583760608301846157be565b60608152600061593e60608301866157be565b828103602084015261595081866157be565b9050828103604084015261596481856157be565b9695505050505050565b60408152600061598160408301856157be565b90506001600160a01b03831660208301529392505050565b83815260606020820152600061589c60608301856157be565b6040815260006159c560408301856157be565b828103602084015261583781856157be565b8381526060602082015260006159f060608301856157be565b90508215156040830152949350505050565b606081526000615a1560608301866157be565b8281036020840152615a2781866157be565b915050826040830152949350505050565b606081526000615a4b60608301866157be565b846020840152828103604084015261596481856157be565b8381526001600160a01b038316602082015260606040820152600061583760608301846157be565b8281526040602082015260006141a160408301846157be565b6001600160a01b038416815260606020820152600061589c60608301856157be565b83815282602082015260606040820152600061583760608301846157be565b6001600160a01b03831681526040602082015260006141a160408301846157be565b838152606060208201526000615b2060608301856157be565b90506001600160a01b0383166040830152949350505050565b606081526000615b4c60608301866157be565b931515602083015250901515604090910152919050565b838152821515602082015260606040820152600061583760608301846157be565b82151581526040602082015260006141a160408301846157be565b606081526000615bb260608301866157be565b9315156020830152506001600160a01b0391909116604090910152919050565b8315158152606060208201526000615b2060608301856157be565b606081526000615c0060608301866157be565b8281036020840152615c1281866157be565b9150506001600160a01b0383166040830152949350505050565b6001600160a01b038416815282602082015260606040820152600061583760608301846157be565b8315158152606060208201526000615c6f60608301856157be565b828103604084015261596481856157be565b606081526000615c9460608301866157be565b8281036020840152615ca681866157be565b9150508215156040830152949350505050565b838152606060208201526000615c6f60608301856157be565b604081526000615ce560408301856157be565b90508260208301529392505050565b604081526000615d0760408301856157be565b905082151560208301529392505050565b831515815282602082015260606040820152600061583760608301846157be565b606081526000615d4c60608301866157be565b6001600160a01b0394909416602083015250901515604090910152919050565b606081526000615d7f60608301866157be565b93151560208301525060400152919050565b606081526000615da460608301866157be565b60208301949094525060400152919050565b606081526000615dc960608301866157be565b602083019490945250901515604090910152919050565b6001600160a01b03841681526060602082015260006159f060608301856157be565b83151581526060602082015260006159f060608301856157be565b83151581526001600160a01b038316602082015260606040820152600061583760608301846157be565b606081526000615e5a60608301866157be565b6001600160a01b0385166020840152828103604084015261596481856157be565b606081526000615e8e60608301866157be565b8415156020840152828103604084015261596481856157be565b60006001600160a01b03808616835260606020840152615ecb60608401866157be565b9150808416604084015250949350505050565b6001600160a01b0384168152606060208201526000615c6f60608301856157be565b606081526000615f1360608301866157be565b6001600160a01b039485166020840152929093166040909101529291505056fea164736f6c634300080c000a",
    "linkReferences": {}
  }
}